:020000040800F2
:10000000B00D00207D020008ED2D0008F52A000843
:10001000E92D00080D170008013800080000000055
:10002000000000000000000000000000F52D0008A6
:100030001117000800000000F12D0008F92D00083C
:10004000970200089702000897020008970200082C
:10005000970200089702000897020008970200081C
:10006000970200089702000897020008970200080C
:1000700097020008970200089702000897020008FC
:1000800097020008970200089702000897020008EC
:1000900097020008970200089702000897020008DC
:1000A00097020008C12E0008970200089702000876
:1000B00097020008970200089702000897020008BC
:1000C00097020008970200089702000897020008AC
:1000D000970200089702000897020008970200089C
:1000E000970200089702000897020008970200088C
:1000F000970200089702000897020008970200087C
:10010000970200089702000897020008970200086B
:10011000970200089702000897020008970200085B
:10012000970200089702000897020008970200084B
:10013000970200089702000897020008970200083B
:10014000970200089702000897020008970200082B
:10015000970200089702000897020008970200081B
:10016000970200089702000897020008970200080B
:10017000970200089702000897020008000000009C
:1001800097020008970200089702000897020008EB
:1001900097020008970200089702000897020008DB
:1001A00097020008970200089702000800F002F882
:1001B00000F054F80AA090E8000C82448344AAF1AD
:1001C0000107DA4501D100F049F8AFF2090EBAE8AB
:1001D0000F0013F0010F18BFFB1A43F0010318477B
:1001E000D0490000F0490000103A24BF78C878C117
:1001F000FAD8520724BF30C830C144BF04680C602D
:10020000704700000023002400250026103A28BF74
:1002100078C1FBD8520728BF30C148BF0B60704778
:10022000662904F06084642900F0CC8000207047C7
:100230001FB504F046FC9DE8030001F04DF800F006
:1002400041FC04000020002104F0BCF9E06000F053
:1002500051FD1FBD10B500F0B6FD10BD00F0EAFD68
:100260001146FFF7E5FF03F0DFFC00F0E1FF03B408
:10027000FFF7F0FF03BC01F0ADF90000094880472B
:1002800009480047FEE7FEE7FEE7FEE7FEE7FEE778
:10029000FEE7FEE7FEE7FEE704480549054A064B90
:1002A00070470000AD2E0008AD010008B007002027
:1002B000B00D0020B0090020B009002053EA020C64
:1002C00000F069802DE9F04B4FF00006002B1FBFB6
:1002D000B3FA83F503FA05F424FA05F65E4012BF7B
:1002E0001643B2FA82F502FA05F4C5F120051EBFE5
:1002F00022FA05FC44EA0C04203556EA044C4FEA85
:10030000144418BF641C4FF000084FF000099042DD
:1003100071EB030C39D3002919BFB1FA81F701FA47
:1003200007F6B0FA80F700FA07F6C7F120071EBFFC
:1003300020FA07FC46EA0C062037B6FBF4FCA7EBD4
:100340000507103F07F01F0BCBF120062CFA06F62D
:100350000CFA0BFB44BFB3460026202FA4BF5E4619
:100360004FF0000B5BEA060C08BF4FF0010B19EBD6
:100370000B0948EB0608ABFB027C06FB02CC0BFB2F
:1003800003CCC01B71EB0C01C1E70B460246414692
:100390004846BDE8F08B13B5084318BF4FF0FF3057
:1003A0000146AFF30080BDE81C4070470FB404491C
:1003B00010B503AA029800F073FB10BC5DF814FBA3
:1003C0006C0000202DE9F0410646002410687529D4
:1003D000314616A510D0AFF30080002802DA404263
:1003E00013A507E031688A0701D512A502E0490785
:1003F00004D511A5012401E0AFF3008000210A22F9
:1004000006F1240709E0B0FBF2FCB0FBF2F302FBBB
:100410001C00303078541846491C0028F3D123467C
:100420002A463046BDE8F04100F0D3B80000000095
:100430002D0000002B000000200000002DE9F047F7
:100440004FF0000A89460446C0F820A02046E16823
:100450008847002876D0252806D0D4E90121904786
:10046000206A401C2062F1E7E168204600258847A9
:10047000C4F81CA006460027C4F818A02A2E09D0EC
:10048000304604F089F838B304EB8708303EC8F8EA
:10049000186019E059F8041B204604EB87029161AB
:1004A000E1688847012F064618D1E069002820DA64
:1004B00025F020051DE0D8F8180000EB800006EBC1
:1004C00040003038C8F818002046E16888470646E2
:1004D00004F062F80028EED1012F0AD02E2E08D1A8
:1004E0002046E16888477F1C0646022F45F020051C
:1004F000C4DBA069002803DA404245F00105A06191
:10050000E80701D025F01005B6B1A6F14100192881
:1005100002D8203645F400654A463146204625601B
:100520004D46FFF77DFE58B1012806D0ED1D25F0A0
:10053000070000F1080989E704E005F1040985E7EF
:1005400030468AE7206ABDE8F0870000000000001E
:1005500030B44FF0013C50F8042B51F8043BCCFA76
:1005600052F4D51A20D1FCB950F8042B51F8043BB1
:10057000CCFA52F4D51A17D1B4B950F8042B51F86B
:10058000043BCCFA52F4D51A0ED16CB950F8042BB6
:1005900051F8043BCCFA52F4D51A05D1002CDAD02C
:1005A00030BC4FF00000704729BAB1FA81F111F068
:1005B0001801D1F120008440F2D1CA40CB4012F0A2
:1005C000FF0213F0FF0330BCD01A7047704770472A
:1005D00070472DE9F0470D4699469246044600F1D2
:1005E00024080168880604D5E06921F01001216023
:1005F00000E00120A84201DD471B00E00027A169BF
:100600007A1902EB0900081AA0612078C00602D40A
:100610002046AFF30080002608E0D4E901211AF853
:1006200006009047206A401C761C20624E45F4DB91
:100630002078C0060AD52046AFF3008006E0D4E952
:10064000012130209047206A401C2062381EA7F10B
:100650000107F4DC07E0D4E9012118F80500904710
:10066000206A401C2062281EA5F10105F3DC20460B
:10067000AFF300802078000602D50220BDE8F087A5
:100680000120FBE72DE9FF4F0C461E464FF0FF37D8
:100690008BB0D2E90001DDF860800A908A46C1F390
:1006A0000A5505B93D46002108464FF00000BAF151
:1006B000000F00F4400005DA00EB80004FF4400129
:1006C00001EA50004FEA9059B9F1010F00DDB94637
:1006D0000A9850EA4A000ED044F61050A5F2FF35B1
:1006E00045432F14B8F1000F1ED07542291E1EDDA0
:1006F000C9F100021CE0B8F1010F4FF0000001D079
:10070000302103E0F24305E02154401CB042FBDB02
:1007100030460022002121540B99C1F80880C1E91C
:1007200000200FB0BDE8F08FBD1B6D1CDEE74A4610
:1007300000DA694206A800F067FA06AB93E8070002
:1007400003AB83E8070050460A9903F045FB8DE8A8
:100750000700A0F500501F3800900398002D0ADD17
:1007600042F21F014A460844002303A90390684649
:1007700003F0AEFD09E0A0F500504A461F38002303
:1007800003A90390684603F0B8FD8DE80700000454
:10079000000C03D04FF0FF30410800E01046B8F1E4
:1007A000000F03D00022009215461EE0751E05D4EE
:1007B00000F08CF9303262556D1EF9D5B346012236
:1007C000084302D000227F1C04E02078302801D1A9
:1007D00000227F1E002A099784D01DE0112D07DA20
:1007E00000F074F9303262556D1C50EA0102F5D107
:1007F000084302D00098C8B10EE00021681E05E051
:10080000235C625C63542254401E491C8142F7DB26
:10081000AB46A81B401E0990002004F80B000B9863
:10082000099AC0F80880C0E9002B7AE711264FF03A
:10083000000857E72DE9F04F88460446D21D22F004
:10084000070191B0D1E90001CDE90A0103F08CFE66
:1008500002460B98C00F01D02D2007E020688107C9
:1008600001D52B2002E0202101EAC000032A0990D3
:1008700001D0072A05DB03464146204600F084F9F3
:100880000BE12078800601D5E06900E00620B8F190
:10089000650F814606D0B8F1660F18D0B8F1670F22
:1008A00070D131E00020B9F1110F009001DB11236C
:1008B00001E009F101030AAA01A90CA8FFF7E2FE71
:1008C000DDE90C70002609F10105834647E00120AF
:1008D0004B4600904FF000470AAA01A90CA8FFF769
:1008E000D1FEDDE90DB00C995D46002610B909F185
:1008F00001000D18B9EB050003D4C0F1FF3609F172
:100900000105A5EB09002BE0B9F1010F01DA4FF069
:1009100001090020B9F1110F0090484601DD1123B3
:1009200000E003460AAA01A90CA8FFF7ABFEDDE927
:100930000C704D4600268346207800070AD4AB454C
:1009400000DA5D4601A8012D04DD411911F8011CF2
:10095000302907D04F4502DA17F1040F04DA0120DD
:1009600082460FE06D1EEEE7002F02DCED1B3E44D9
:1009700003E0781CA84200DD7D1CB81B00F1010AD1
:100980004FF000472078000703D4AA4501DB4FF061
:10099000FF3A0021B7F1004F0DF143088DF84310E5
:1009A00024D002202B23002F01DA7F422D230A219D
:1009B000021EA0F1010000DC5FB197FBF1FC97FB88
:1009C000F1F201FB1C7C17460CF1300C08F801CD4C
:1009D000EEE7A8F1010003702188090501D5452142
:1009E00000E06521A0F1010800F8011C09980FA999
:1009F000A1EB0807FF1D00B10120411901EBEA70CE
:100A0000A1693844081A401EA0612078C00602D4AB
:100A10002046AFF30080099828B1D4E9012190471E
:100A2000206A401C20622078C00622D52046AFF301
:100A300000801EE0002E04DBB34502DD01A8805DCE
:100A400000E03020D4E901219047206A401C206258
:100A5000761CAAF101005FEA000A0AD100F032F820
:100A6000C0680168405CD4E901219047206A401CBD
:100A70002062281EA5F10105DCDC07E0D4E9012194
:100A800018F8010B9047206A401C2062381EA7F11D
:100A90000107F3DC2046AFF30080032011B041E6EC
:100AA000074B70B50D467B4400F05BF804462846C2
:100AB00000F01CF910B14FF0FF3070BD204670BD42
:100AC000FD3A0000004870473401002030B5B0F115
:100AD0000A0271F100034FEA900E4EEA817EB0EBFC
:100AE0000E0061EB91014FEA101E4EEA017E10EB01
:100AF0000E0041EB11114FEA102E4EEA016E10EB81
:100B00000E0041EB11214FEA104E4EEA014E10EB60
:100B10000E0041EB1141401841F100014FEAD000B5
:100B200040EA41704FEAD1014FEA810444EA9074EF
:100B300010EB800544EB01046D1944EB0404521BD7
:100B4000A3414FF0000348BF0A3200D530BD401C1E
:100B500041F1000130BD000001694A1C02610878C2
:100B6000704700B58FB0CDE90131002105910549ED
:100B70007944CDE9031011466846FFF75FFC0FB0DA
:100B800000BD0000E5FFFFFF2DE9F0411F460446D0
:100B900003260168072A01F4006004DB08B116A5EA
:100BA00005E016A503E008B115A500E015A521F0A4
:100BB00010002060A069C01EA0610FB1401EA0619E
:100BC0002046AFF300804FB1D4E901213846904769
:100BD000206A401C2062C01C206206E0206AFAE7FE
:100BE000D4E9012115F8010B9047761EF8D2204672
:100BF000AFF30080BDE8F0814E414E006E616E00A3
:100C0000494E4600696E66002DE9F047814616465A
:100C10008AB0354878440DC88DE80D0032487844D4
:100C2000801C03AC0DC884E80D0041F69B300844DD
:100C3000372190FBF1F290FBF1F5A5F1800501FB66
:100C400012041B3C02D56442012000E00020DFF8C2
:100C500098A080460027FA44AAF1BE0A0EE0E007F9
:100C60000AD03246684607EB470101230AEB8101AF
:100C700003F043FB8DE8070064107F1C002CEED1CD
:100C8000194F7F44AE3F19E0E80715D007EB041079
:100C90000DF1180A90E80E008AE80E00C068F042D4
:100CA00001D1981908903246012306A903A803F040
:100CB00024FB03AB83E807006D10641C002DE3D117
:100CC0004FF0010332466946B8F1000F03A802D085
:100CD00003F0FEFA01E003F010FBC9E90001C9F8D6
:100CE00008200AB0BDE8F087503F0000007B00F00C
:100CF0008000704710B54248542100F0A9FA4148DD
:100D0000542100F0A5FA4048542100F0A1FA3F49CF
:100D10003B483C4A3F4B08603D490A603A491960EC
:100D2000531C0365481C1065012008653B48344A84
:100D300039A1784400F0DEF920B9384878440A38FF
:100D400000F07FFA37482F4A35A1784400F0D2F9F5
:100D500020B9344878440A3800F073FA32482A4AF5
:100D60002FA1784400F0C6F920B92F4878440A38FA
:100D700000F067FA40232248DC000021224600F000
:100D800096F920B125487844543800F05AFA1D48A5
:100D900022464023002100F08AF920B121487844FE
:100DA000543800F04EFA184822461023002100F073
:100DB0007EF9002806D01C487844BDE8104056381B
:100DC00000F03FBA10BD104870B5006D20F001046E
:100DD0000B4800F007FA0B4800F004FA0A4800F04C
:100DE00001FA09E0206D20F00105204600F0FAF933
:100DF000204600F044F82C46002CF3D170BD0000D2
:100E0000180000206C000020C0000020000000201E
:100E10000400002008000020720000006A3E00006C
:100E200077000000593E0000323E00000048704745
:100E3000140100207546FFF7F9FFAE46050069462C
:100E4000534620F00700854618B020B5FFF724FA76
:100E5000BDE820404FF000064FF000074FF00008BB
:100E60004FF0000BAC46ACE8C009ACE8C009ACE8F8
:100E7000C009ACE8C00921F007018D46704770B584
:100E80000446051F00F00CFA0068002C14BF4468EB
:100E900070BD002C18BFAC423CBF20466468F8D33C
:100EA00001680A18AA4218BF456003D12A6805469E
:100EB0001144016028684119A1421CBF6C6070BDDB
:100EC0006168696021680844286070BD2DE9F05FA1
:100ED000054617460C46C86820F4201040F48000F0
:100EE000C860800602D5084600F033FBE06841F296
:100EF00082014FF0FF3A0140022903D0204600F062
:100F0000C5FAB9E000F42041B1F5004F0FD1C0039C
:100F100006D56168E06A884200D80846606006E04D
:100F20002069E0626060606902F076FCA061A06800
:100F30000022EEB200280DDAE1688B050AD4C04326
:100F4000A06041F490302260E0606068411C616004
:100F50000670AAE0E0689146226040F40050E0602C
:100F6000206978BB606902F059FC04F124054FF058
:100F70000108A8B1A08910F4407F08D0E06900F012
:100F8000DAF9206118B1E06840F4006017E0C4F8B5
:100F90001C802561E06820F4407040F480600EE021
:100FA000E06900F0C8F900282061F0D0E06840F462
:100FB000006010F4407FE06002D140F48070E06097
:100FC00020696060E06825696FF0010BC1051ED5DE
:100FD0006168E06A884200D80846411B04D0224676
:100FE000284600F05DFAE8BB1FB1E562C4E901598B
:100FF00059E0681CE0626060E069401EA060E06843
:1010000040F48030E06030462E70BDE8F09F17B1AC
:1010100000F480320AE06068411C61600670E0689C
:101020000A2E40F48030E06006D00022E16A606859
:10103000814203D90B4602E00122F7E70346B4F8E8
:101040000CC05B1B5FEA4C5C04D4D4F81CC09C450C
:1010500000DD02B3814200D80146002BA1EB00085D
:10106000E56200E008E0C4E9015907DD22461946BF
:10107000284600F015FA08B15046C6E7B8F1000F4F
:1010800009D0A169E5626560A1EB0800A061E06894
:1010900040F01000E06047B16168A069E562491B5B
:1010A00008446560A0615846AFE73046ADE770B5CB
:1010B000C468A50713D0650211D4B2F5807F09D0AA
:1010C000B2F5007F06D0B2F5806F08D1012300F1A0
:1010D000240106E05D1E6FF07F46B54201D301207A
:1010E00070BD0161C361416024F470611143C1604E
:1010F000002070BD2DE9F0410C461646070047D090
:10110000104600F06FF82078611C61280AD0722820
:1011100002D077283CD102E00125002405E0022519
:10112000042402E0082448F2020511F8010B2B28E0
:1011300006D0622809D011F8010C74280AD00BE0FF
:1011400045F0030544F00204EFE745F0040544F0E0
:101150000104EAE744F010043846214602F066FB39
:10116000411C15D00021316171604FF40071F560B0
:10117000F1617061200704D530460222002100F0A1
:1011800009F9306D40F0010030653046BDE8F0816E
:101190000020FBE72DE9F0410D460646104C206D7E
:1011A000C10704D0410804D020F00104F7E722462B
:1011B0000EE0542000F0BFF807000ED0206D47F07D
:1011C0000101084354212065384600F041F83A46B1
:1011D00029463046BDE8F0418CE70020D6E7000004
:1011E000180000202DE9F04704464FF0FF38002694
:1011F000C568D4E90497A80718D0204600F086F9FE
:10120000384602F0FFFA002800DA4646280502D5E3
:101210004846FFF734FE4C21204600F019F8206DB7
:1012200020F0010020653046BDE8F0874046FBE72E
:1012300010B50446AFF300802046BDE81040FFF72C
:1012400016B810B500F0ACF9BDE8104000F0A2B936
:101250004FF0000200B5134694469646203922BF4F
:10126000A0E80C50A0E80C50B1F12001BFF4F7AF9A
:10127000090728BFA0E80C5048BF0CC05DF804EB7C
:10128000890028BF40F8042B08BF704748BF20F8EA
:10129000022B11F0804F18BF00F8012B704700009F
:1012A000004870471C010020704770477047704726
:1012B00038B504460A4600206946AFF3008000288E
:1012C00008BF38BD02460099204600F090F9012081
:1012D00038BD012000F0DFB9F8B5AFF30080054656
:1012E00000200C46102000BF0646A819A0420DD9C8
:1012F000324669460020AFF30080070008BF00F0C7
:10130000CAF90098A04218BF0546C419FFF7C8FFE4
:1013100005600746F01D20F007004619284600F03A
:101320005FF9B44208BFF8BDA21B31463868BDE87A
:10133000F84000F05CB970B50646FFF7B1FF0568EC
:1013400006F10B0020F00704B4429CBF002070BDE2
:101350002B466A68BAB11068A04210D304F10801A4
:1013600088423CBF5068586007D3516810194160EB
:101370001168091B016058601460101D70BD134690
:101380005268002AE7D121462846FFF791FF00283E
:10139000DED170BD2DE9F041044616460D46476981
:1013A000007B80072ED0384602F038FA50BB3EB39F
:1013B000012E02D0022E25D104E0204600F031F9A2
:1013C00005441DE0384602F027FAE168002841F0A4
:1013D0001001E16005DA204600F058F80120BDE870
:1013E000F081C9030BD56268E16A914200D81146C9
:1013F000A26911442269891A814200DD0846054428
:10140000002D01DA0220EAE7E16A6068E2688142C1
:1014100006D29103E06203D522F4003141F01002BC
:10142000A6690027AE4213DCE16A814201D90B466E
:1014300000E0034603EB060C2369ACEB030CAC4560
:1014400006DD814201D98C4600E084469C4505D1E9
:10145000A760276042F02000A5620DE0AD1BE669A1
:10146000AE1B8142A66000D90846C01A281A206027
:101470005819606022F0200003490840E060002015
:1014800084F84870ABE70000BFCFD7FFC16821F4F4
:10149000001141F08001C16000218160016070474E
:1014A0002DE9F74F15460C464FF0FF3B3848D768FB
:1014B000D2F814A0074209D05046A96902F0E8F911
:1014C000002819DB3248C0430740EF604FF0004965
:1014D0006FF000484C4501D3464600E0264600998F
:1014E0003B465046324602F0D7F9A96920F0004247
:1014F000B21A1144A96128B12846FFF7C7FF584620
:10150000BDE8FE8FA41BE5D10020F9E770B50446C5
:101510000569C06A6168884200D80846E16821F41C
:101520002011E160C90312D5A84208D02246411B10
:101530002846FFF7B5FF10B14FF0FF3070BD002017
:10154000E562C4E90150E06820F48030E0600020EA
:1015500070BD10B50446C06820F02000E060A16AAC
:10156000A06988420DD02046FFF7D0FFE06820F444
:10157000405040F01000E060A06AA0612069E06285
:10158000606044F24001E0688843E06010BD000004
:1015900010000200002801D000F01CB870470000C5
:1015A00010B5014602A000F05DF8012010BD00005A
:1015B00053494752545245443A2052656469726512
:1015C00063743A2063616E2774206F70656E3A20F1
:1015D0000000000001491820ABBEFEE72600020013
:1015E00000210160C0E901107047102070470346D8
:1015F00040688C46002818BF88423CBF03464068BC
:10160000F8D318681844884207D00CF1030020F082
:101610000700001D411A521A0146081D0A60FFF713
:101620002EBC10B50146C268900703D0900607D5BE
:10163000886A0AE000F03EF801210160881E10BDB2
:101640008B69486818440B69C01A91F848301BB17F
:1016500091F84910401A10BD1103FCD50028FADD9D
:10166000401E10BD70B505460C460A2000E06D1CFA
:1016700000F018F835B128780028F8D102E0641C91
:1016800000F010F814B120780028F8D1BDE87040BF
:101690000A2000F007B810B500F010F8BDE81040BF
:1016A000FFF778BF08B569468DF800000320ABBE90
:1016B00008BD7047004870471401002010B501288C
:1016C00005D0002103A0FFF7CDFF012010BD09A127
:1016D000F8E7000053494752544D454D3A204F75A5
:1016E00074206F662068656170206D656D6F72791A
:1016F000000000003A2048656170206D656D6F72D2
:101700007920636F7272757074656400FEE7000083
:1017100070470000EFF3108072B600BFFEE70000D4
:10172000B0B5044600F0F8F8054640F20C00C2F2ED
:1017300000000078611C18BF044400BF00F0ECF802
:10174000401BA042FAD3B0BD2DE9F04F82B000F1AA
:101750003E4242F2004502F1FF77C4F202050A223E
:1017600043F6004E4FEAB726A84208BF0922C4F24A
:10177000010E092E38BF4FEAB722012500260027A7
:101780004FF00008009208E008F101080437B8F1B2
:10179000100F06F1020600F0A7800C6805FA08F9A0
:1017A00014EA090FF0D0D1F804B003220BF0030CB7
:1017B000ACF10104B240012C6FEA020A10D8826831
:1017C000CC6802EA0A02B440224382604268CBF34A
:1017D000001422EA090204FA08F42243426005E0F8
:1017E000BCF1030F02D14FF0030C20E0C2688C68FB
:1017F00002EA0A02B4402243BCF1020FC26016D1D1
:101800006FF0030202EA58020244D2F820C007F047
:101810001C050F230C69AB402CEA030304FA05F501
:101820002B431362D1F804B001250BF0030C0268BE
:101830000CFA06F302EA0A021A431BF4403F026064
:10184000A2D0002243F644030192C4F202031A68B4
:101850004FF6084C42F480421A601A68CFF6FF7CBB
:1018600002F480420192019A28F00302724452F875
:101870000C3007F00C050F24AC40A343009C04FA85
:1018800005F52B4342F80C30DEF808204B6842EA9D
:10189000090543F60C4CDC0258BF22EA0905CEF8D4
:1018A0000850C4F2010CDCF800209C0242EA090551
:1018B00058BF22EA0905CCF80050DEF804209C034A
:1018C00042EA090558BF22EA0905CEF80450DEF8BD
:1018D0000020DB0342EA090558BF22EA0905CEF8D9
:1018E0000050012550E700BF02B0BDE8F08F0000B6
:1018F0000069084018BF012070470000426902EAF1
:101900000103914341EA034181617047002A08BF06
:10191000090481617047000040F2A870C2F2000023
:101920000068704790F83D20202A1CBF02207047B5
:10193000242280F83D200268136823F0010313601D
:10194000536A23F010035362536A194351621168BA
:1019500041F001011160202180F83D100020704706
:1019600090F83D20202A1CBF02207047242280F8D6
:101970003D20026889B2136823F001031360D2F896
:1019800024C04FF6F07303EA0C0319435162116847
:1019900041F001011160202180F83D1000207047C6
:1019A00070B5B8B3044690F83D0028B9002084F81B
:1019B0003C00204600F0B0F8242084F83D00206868
:1019C000016821F001010160016841F400410160FA
:1019D000016821F40041016000F076FB48F280418B
:1019E000C0F21E0140F60013D4F804E088424FF024
:1019F0000001C0F23D0348F2A16C4FF0000238BF75
:101A000001219842C0F2010C38BF0122E64538BFDF
:101A10000A460AB1012070BD4DF68361C4F21B3144
:101A2000A0FB01122168950C4B684FF4967623F0C9
:101A30003F0343EA9243754344F6D3564B60C1F2E9
:101A400062060B6AA5FB0656B50923F03F03E6457F
:101A500038BF950C6A1C1A430A62CA6948F2A0662C
:101A60004CF6FF73C0F20106B64522EA03020BD81A
:101A700001384FEA4E03B0FBF3F001306FF31F3033
:101A8000042898BF04201EE0A368013863B119231D
:101A90000EFB03F3B0FBF3F001306FF31F3078B1AE
:101AA00000F5804008E000BF0EEB4E03B0FBF3F002
:101AB00001306FF31F3028B100F5004003E000BF94
:101AC000012000E001201043C8610868D4E9072321
:101AD00020F0C000104318430860886848F2FF32C5
:101AE00004F10C0690434CCE18431043A56988605E
:101AF000C86820F0FF0030432843C860086840F001
:101B00000100086000202021206484F83D1020633B
:101B100084F83E0070BD0000B0B586B0016845F2A3
:101B20000040C4F20000814202D006B0B0BD00BF48
:101B3000002443F630050194C4F20205296800F53B
:101B4000D83041F002012960296801F002010191B9
:101B500001994FF4407101911221CDE90214032142
:101B600004910421059101A9FFF7EEFD0094286975
:101B700040F400102861286900F4001000900098DB
:101B800006B0B0BD40F20C0040F2A871C2F20000F5
:101B9000C2F2000100780A68104408607047000033
:101BA00080B543F60040C4F20200016841F40071C0
:101BB0000160016841F480610160016841F4807155
:101BC0000160032000F0BEF80F2000F005F800F0DF
:101BD0005DF8002080BD0000B0B586B0002543F65A
:101BE00044010195C4F202010A68044642F0010270
:101BF0000A60096801A801F0010101910199694693
:101C000000F042FA00F074FA4DF683614000C4F22D
:101C10001B31A0FB01014FF0FF3000EB914140F27E
:101C2000D4600022C2F20000C4F2010240F2E733A5
:101C3000C0E90021C0E902530561856100F0BCFCE8
:101C4000054618B1284606B0B0BD00BF40F2D460CA
:101C5000C2F2000000F0FAFC05460028F2D119207B
:101C600000F030F80F2C0DD8192021460022002555
:101C700000F03CF840F21000C2F200000460284678
:101C800006B0B0BD0125284606B0B0BD82B0002028
:101C900043F640010190C4F202014A6842F48042D6
:101CA0004A604A6802F480420192019A00900868F2
:101CB00040F080500860086800F080500090009864
:101CC00002B07047002848BF7047C1B200F01F0043
:101CD000012202FA00F04EF20012CEF2000242EAB5
:101CE000D10121F0030108607047000010B54EF6E5
:101CF0000C5CCEF2000CDCF80030C3F3022E8EF048
:101D00000704042C28BF0424BEF103034FF0FF3E58
:101D10000EFA04F438BF0023A14399400EFA03F3EE
:101D20009A43114300F00F0200F160430901043AA5
:101D300003F564436244002848BF02F10C031970A4
:101D400010BD00004EF60C51CEF200010A684FF6AD
:101D5000FF031A4060F30A2242F0806040F0FD70F9
:101D6000086070472DE9F04F8BB0002800F08680A6
:101D70000446056890F8BD0428B9002084F8BC0426
:101D8000204600F08FF8032084F8BD04E86BC005FE
:101D90005CBF00202061206801F0F8FC206804F19D
:101DA0001C0A0A90D4E90C5004F1040E9AE8C0070A
:101DB0009EE80E58CDE9085003A880E8C0030A98B1
:101DC0008DE80058CDF81CA001F096F9002852D1FA
:101DD00020680021002501F0E1FC616861B3012069
:101DE0000023002203EBC30304EB830787F83C20A6
:101DF000D3B20132A7F84430D3B2994287F83D00FC
:101E000087F84050C7E912557D65EBD800200023C4
:101E1000002200BF03EBC30304EB830787F87C2297
:101E20000132D3B2994287F87D0287F88002C7E970
:101E3000A200C7F89402EDD8A06822680A90D4E9FD
:101E40000C5004F1140E04F1240AD4E903379EE87F
:101E500040589AE80007CDE9085002A880E80058E9
:101E600010460A9ACDE90076CDE90589CDF81CA087
:101E700001F042FA40B1022084F8BD040125284651
:101E80000BB0BDE8F08F00BF0025012084F838506A
:101E900084F8BD04206801F01FFA28460BB0BDE8A5
:101EA000F08F0000F0B587B00068B0F1A04F01D00E
:101EB00007B0F0BD002743F630060297C4F20206D1
:101EC0003068002440F0010030603068C4F2020441
:101ED00000F00100029002984FF4E85002900220B6
:101EE000CDE90307032005900A2002AD06902046A5
:101EF0002946FFF729FC4FF40070CDE90207204680
:101F000029460497FFF720FC706840F0800070605D
:101F10000197706940F480407061706900F48040FE
:101F20000190019807B0F0BD2DE9F041002800F0C4
:101F30008B8043F60808C4F202080446D8F8F80378
:101F40000D4600F00F00884207D288F8F853D8F801
:101F5000F80300F00F00A84276D12068810717D55A
:101F6000410705D5D8F8001041F4E051C8F8001039
:101F7000010705D5D8F8001041F46041C8F80010F9
:101F8000D8F80010A26821F0F0011143C8F8001041
:101F9000C0073FD1D8F8F80300F00F00A84207D9D6
:101FA00088F8F853D8F8F80300F00F00A8424BD196
:101FB0002068410707D5D8F80010E26821F4E05105
:101FC0001143C8F80010000708D5D8F800002169AF
:101FD00020F4604040EAC100C8F8000000F09CF81E
:101FE000D8F8001044F68032C1F30311C0F60002A5
:101FF000515C40F2140220FA01F140F21000C2F2EA
:1020000000000068C2F200021160FFF7E5FD002049
:10201000BDE8F0816068811E022907D258F8081CCB
:1020200089015CBF0120BDE8F08111E0012807D1E2
:1020300058F8081C89035CBF0120BDE8F08107E067
:1020400058F8081C890703D40120BDE8F08100BFBF
:10205000D8F8001021F003010843C8F80000FFF78A
:102060005BFC064641F28837D8F80000616800F052
:102070000C00B0EB810F8DD0FFF74EFC801BB842F7
:10208000F2D90320BDE8F0810F22026043F6080276
:10209000C4F20202136803F003034360136803F001
:1020A000F0038360136803F4E053C360D2F800C008
:1020B0004FF4E05303EADC030361D2F8F80300F0C5
:1020C0000F0008607047000040F2140043F608015A
:1020D000C2F20000C4F202010068096844F69032BE
:1020E000C1F38221C0F60002515CC8407047000075
:1020F00040F2140043F60801C2F20000C4F20201EB
:102100000068096844F69032C1F34231C0F600021B
:10211000515CC8407047000010B543F60404C4F297
:102120000204606800F00C0142F200400829C0F28D
:10213000F40007D0042918BF10BD41F20020C0F2FE
:102140007A0010BD216801F03F022168236849022E
:10215000C3F3881106D4A1FB00010023FEF7AEF8FB
:1021600007E000BF41F20020C0F27A004843B0FB14
:10217000F2F021680222C1F3014102EB4101B0FB00
:10218000F1F010BD2DE9F04182B0002868D004467E
:10219000007843F60006C007C4F202060BD0B06810
:1021A00000F00C00042840F09F803068800302D5C6
:1021B0006068002854D0207880071AD5B06810F0E5
:1021C0000C0F09D0B06800F00C00082840F0A68081
:1021D0007068400200F1A2803068800702D5E06894
:1021E00001283DD13068216920F0F80040EAC100A3
:1021F00030602078000737D4207840074CD4A56998
:1022000055B3B06800F00C00082840F0BB80012DE9
:1022100026D07068E16900F480028A4220D1216AE8
:1022200000F03F028A421BD147F6C071626A01404A
:10223000B1EB821F14D1A16A4FF6FF73C903994312
:1022400000F44032A1F580318A4209D1E16A00F000
:102250007060B0EB016F03D1002002B0BDE8F081E7
:10226000012002B0BDE8F0816069002840F2000062
:10227000C4F2472076D00121C0F8801EFFF74CFB46
:10228000054600BF706F8007B6D4FFF745FB401BC3
:102290000228F7D9DDE000BF306C10F080580AD179
:1022A00000200190306C40F080503064306C00F0C1
:1022B00080500190019847F20007C4F20007386887
:1022C000C00541D4386840F480703860FFF724FBC3
:1022D000054600BF3868C00536D4FFF71DFB401B1C
:1022E0000228F7D9B5E000BFB06800F00C0008285C
:1022F00003D1706840023FF558AF6068B0F5803F89
:1023000007D0B0F5A02F40F08D80306840F48020D9
:102310003060306840F4803030608DE0E068002844
:1023200052D00020C4F2472001210160FFF7F4FAE7
:10233000054600BF306880073FF554AFFFF7ECFA61
:10234000401B0228F6D984E0A068012805D00528A2
:102350004ED1306F40F004003067306F40F0010024
:1023600030674FE00021C0F8801EFFF7D5FA054620
:10237000706F80077FF540AFFFF7CEFA401B022851
:10238000F6D966E00027C4F2472700203866FFF739
:10239000C3FA022D05460BD1306880015ED5FFF7E8
:1023A000BBFA401B02284FF00300F5D955E700BFE8
:1023B000306880017FF550AFFFF7AEFA401B02286E
:1023C0004FF00300F4D948E70020C4F24720002171
:1023D0000160FFF7A1FA0546306880077FF509AF75
:1023E000FFF79AFA401B02284FF00300F4D934E7B4
:1023F000316F002821F001013167316F21F00401B4
:1024000031674DD0FFF788FA054641F2883700BFA3
:10241000306F800756D4FFF77FFA401BB842F7D9D8
:1024200017E000BF3168002821F480313160316845
:1024300021F4802131604FD0FFF76EFA054600BFCE
:10244000306880033FF5B7AEFFF766FA401B64289B
:10245000F6D9032002B0BDE8F08100BF04F11C05ED
:102460002FCD084340EA8210D9034FF6FF72914303
:10247000A1F5803140EA05600843706001203866AC
:10248000FFF74AFA044600BF306880013FF5E4AE2A
:10249000FFF742FA001B02284FF00300F4D9DCE6F4
:1024A000FFF73AFA054641F2883700BF306F8007E0
:1024B00008D5FFF731FA401BB8424FF00300F5D9B9
:1024C000CBE600BFB8F1000F7FF499AE306C20F07E
:1024D0008050306493E600BFFFF71EFA054600BF48
:1024E000306880037FF567AEFFF716FA401B64285B
:1024F0004FF00300F4D9B0E67047000070470000C9
:1025000010B590F83C20012A4FF0020251D080F81B
:102510003D200268D2F804E0D2F808C00C682EF022
:102520007003234341F2FF74C4F20004A2425360DB
:102530000EDC40F2FF73C4F200039A4216DCB2F1E3
:10254000804F2BD040F20043C4F2000324E000BFD0
:1025500040F2FF33C4F201039A4213DC41F6000358
:10256000C4F200039A4219D0002313E040F600039E
:10257000C4F200039A4211D040F60043C4F20003B3
:102580000AE000BF44F20003C4F201039A4205D0FE
:1025900040F20043C4F201039A4204D149682CF08E
:1025A0008003194391600121002280F83D1080F8DA
:1025B0003C20104610BD0000002804BF01207047D9
:1025C00010B5044690F83D0028B9002084F83C007E
:1025D000204600F01FF8022084F83D002068211DED
:1025E00000F074FC012084F8460084F83E0084F872
:1025F0003F0084F8400084F8410084F8420084F8E9
:10260000430084F8440084F8450084F83D0000202D
:1026100010BD000081B0006840F20041C4F200012A
:10262000884201D001B070470020009043F640007E
:10263000C4F20200016841F002010160006800F08C
:1026400002000090009801B07047000090F83D1023
:1026500001291CBF01207047022180F83D1000684D
:1026600041F2FF72C168C4F20002904241F00101E0
:10267000C1600DDC40F2FF71C4F20001884215DC3C
:10268000B0F1804F2AD040F20041C4F2000123E0B3
:1026900040F2FF31C4F20101884213DC41F600012F
:1026A000C4F20001884219D0002113E040F6000175
:1026B000C4F20001884211D040F60041C4F200018A
:1026C0000AE000BF44F20001C4F20101884205D0D3
:1026D00040F20041C4F20101884206D1816801F054
:1026E0000701062904BF00207047016841F001017D
:1026F000016000207047000080B590F83C20012A5E
:102700004FF0020200F0C28080F83D20D0F800C0F7
:102710004FF67772DCF8083023EA0202CCF8082082
:102720000B684F2B28DC1F2B44DD202B45D0302B92
:1027300043D0402B40F0AC80D1F804E0C968DCF80D
:102740002030DCF8202022F00102CCF82020DCF838
:10275000182022F0F00242EA011123F00A0242EAB4
:102760000E02CCF81810CCF82020DCF8081041F04C
:10277000470121F0300180E06F2B27DDB3F5005FCA
:1027800048D0B3F5805F7AD0702B40F08180D1E9DA
:1027900001E3C968DCF8082043EA0E0322F47F4213
:1027A00043EA01211143CCF80810DCF8081041F08D
:1027B000770162E00BB1102B6AD1DCF8081021F030
:1027C0007001194341F0070157E000BF502B35D08D
:1027D000602B5DD1D1F804E0C968DCF8203023F02B
:1027E0001003CCF82030DCF81830DCF8202023F47B
:1027F000704322F0A00243EA013142EA0E12CCF803
:102800001810CCF82020DCF8081041F0670121F006
:10281000100132E0D1E901E3C968DCF8082043EA9D
:102820000E0322F47F4243EA01211143CCF8081041
:10283000DCF8081041F480411FE000BFD1F804E04B
:10284000C968DCF82030DCF8202022F00102CCF846
:102850002020DCF8182022F0F00242EA011123F0D7
:102860000A0242EA0E02CCF81810CCF82020DCF85C
:10287000081041F0570121F02001CCF80810002287
:10288000012180F83D10002180F83C10104680BDE9
:102890000122F5E77047000010B501680446086999
:1028A000800744BFC8685FEA807039D40869400770
:1028B00044BFC8685FEA40703ED40869000744BF5F
:1028C000C8685FEA007045D40869C00644BFC8689C
:1028D0005FEAC0604AD40869C0071CBFC8685FEAE5
:1028E000C07051D10869000644BFC8685FEA006043
:1028F00052D40869400644BFC8685FEA406053D4B8
:102900000869800646BFC8685FEA806010BD6FF046
:10291000200220460A61BDE81040FFF7EFBD00BF6E
:102920006FF002000861012020778869800743D09A
:102930002046FFF7AFFF45E06FF00400086102207A
:102940002077886910F4407F40D02046FFF7A2FF2F
:1029500042E000BF6FF00800086104202077C869DA
:1029600080073DD02046FFF795FF3FE06FF0100055
:10297000086108202077C86910F4407F3AD02046CB
:10298000FFF788FF3CE000BF6FF0010008612046C0
:1029900000F03EF82168A5E76FF08000086120464E
:1029A000FFF7AAFD2168A4E76FF040000861204608
:1029B00000F038F82168A3E7204600F025F820460B
:1029C00000F024F82168002020776FE7204600F00F
:1029D0001BF8204600F01AF82168002020776CE7E9
:1029E000204600F011F8204600F010F82168002081
:1029F000207769E7204600F007F8204600F006F847
:102A000021680020207766E77047000070470000CB
:102A100000680021C4F20101884218BF7047FFF727
:102A2000B1B8000070470000002804BF01207047C3
:102A300010B5044690F83D0028B9002084F83C0009
:102A4000204600F021F8242084F83D002068C16869
:102A500021F40051C160204600F0D6FA20680169D7
:102A600021F490410161416921F02A014161C1686D
:102A700041F40051C16000202021206484F83D1001
:102A800084F83E1010BD000080B586B0016844F6A1
:102A90000000C4F20000814202D006B080BD00BF39
:102AA000002143F630020191C4F20202136900F5DD
:102AB000E23043F480231361136903F4802301930C
:102AC000019B0191136843F008031360126802F040
:102AD00008020192019A4FF4407201920222CDE95C
:102AE0000221032104910721059101A9FEF72CFE83
:102AF00006B080BDFEE700002DE9F04F87B000244E
:102B000043F63000CDE905440194C4F202000168A7
:102B100040F2004641F0040101600168C4F202067F
:102B200001F004010191019901940168002241F032
:102B300080010160016801F0800101910199019417
:102B4000016841F001010160016801F0010101919A
:102B500001990194016841F002010160016801F0EE
:102B60000201019101990194016841F0080101609D
:102B7000016801F00801019101990194016841F097
:102B800040010160006844F2814100F04000019082
:102B900001983046FEF7BAFE06F5A058404640219F
:102BA0000022FEF7B3FE4FF4005002904FF488105D
:102BB00006F5806702ADCDE9030438462946FEF7E5
:102BC000C3FD322002904FF002094FF0030A4FF08C
:102BD0000B0B38462946CDE90394CDF814A0CDF867
:102BE00018B0FEF7B1FD8620CDE9020904A880E8FF
:102BF000100CA6F580602946FEF7A6FD44F2810080
:102C00000290012730462946CDE903740594FEF76A
:102C10009BFD4FF4806002A981E88102304629467D
:102C20000594FEF791FD4FF4006002A981E81102BE
:102C300030462946FEF788FD4FF40050CDE90209E1
:102C400004A880E8100C30462946FEF77DFD4020A0
:102C5000CDE9020740462946CDE90444FEF774FD5C
:102C60008020CDE90204404629460494FEF76CFD1D
:102C70004FF42050CDE9020904A880E8100C40462A
:102C80002946FEF761FD07B0BDE8F08F80B540F240
:102C9000741045F20041C2F20000C4F2000141F696
:102CA000802200234FF4804CC0F2060280E80E0020
:102CB000C0E9033CC0E90533C0E90733FEF770FE05
:102CC000002818BFFEF726FD40F27410C2F2000083
:102CD0000021FEF727FE002818BFFEF71BFD40F27B
:102CE0007410C2F200000021FEF73AFE002808BF6F
:102CF00080BDBDE88040FEF70DBD000080B586B008
:102D000040F21C7040F200420021C2F20000C4F206
:102D1000000229234FF6FF7C0591CDE90311CDE98F
:102D20000011C0E90023C0E9021C01618161FFF7C5
:102D300043FC002818BFFEF7EDFC4FF480500290D2
:102D400040F21C70C2F2000002A9FFF7D5FC002877
:102D500018BFFEF7DFFC40F21C70C2F200006946AB
:102D6000FFF7CEFB002818BFFEF7D4FC06B080BDED
:102D700080B540F2647044F60001C2F20000C4F273
:102D8000000100234FF00C0C4FF4E13280E80E00FC
:102D9000C0E90333C0E905C3C361FFF745FE00285E
:102DA00008BF80BDBDE88040FEF7B4BC80B540F2EE
:102DB000C810C2F200004FF0A0410422C0E9001286
:102DC000022100220123C0E90312C0E90613C0E971
:102DD0000822C0E90B32FEF7C5FF002808BF80BDFE
:102DE000BDE88040FEF796BCFEE70000FEE700006D
:102DF000704700007047000070470000B0B592B007
:102E0000002443F64000CDE90A44CDE90844059486
:102E1000CDE90344CDE901440094C4F20200016805
:102E2000022541F080510160006800F08050009060
:102E3000009847F200000094C4F20000016841F4D9
:102E400040410160006800F440400090009801207B
:102E500006904FF4803007904FF480000D900420CE
:102E60000E90A820CDE90F050720119006A80C951B
:102E7000FFF788F920B1EFF3108072B6FEE700BFCC
:102E80000F20CDE901054FF4C05004904FF4A0503D
:102E9000059001A805210394FFF746F820B1EFF350
:102EA000108072B6FEE700BF12B0B0BD4EF688507B
:102EB000CEF20000016841F470010160704700002B
:102EC00040F2D460C2F20000FFF7E6BC10B540F655
:102ED000FF3E0368C4F2000E40F2004C7045C4F29D
:102EE000010C27DCB0F1804F31D040F20042C4F237
:102EF000000290422BD040F60002C4F20002904241
:102F000025D041F6FF72C4F20002904229DC7045E0
:102F10003CDCB0F1804F5FD040F20042C4F20002CE
:102F2000904259D040F60002C4F20002904253D0C1
:102F300056E000BF40F60042C4F20002904206D0C4
:102F4000604504D00022C4F201029042D9D14A68FF
:102F500023F07003134341F6FF72C4F20002904263
:102F6000D5DD43F6FF72C4F20102904222DC42F248
:102F70000002C4F2000290422ED00022C4F20102EC
:102F8000904229D0604527D02AE000BF40F6004299
:102F9000C4F2000290421FD041F60002C4F20002C7
:102FA000904219D041F60042C4F20002904213D080
:102FB00016E000BF44F20002C4F2010290420BD0BE
:102FC00044F60002C4F20102904205D044F20042ED
:102FD000C4F20102904203D1CA6823F44073134340
:102FE00023F080024B69D1F800E08C681A4302603C
:102FF000C46240F48062C0F828E0624504BF0969F9
:1030000001630121416110BD10B504460068D4E997
:1030100002C22369016921F44051114301616269CF
:1030200043EA0C01E3691143C268194349F20C6396
:103030009A431143C1604169A26921F4407141F290
:103040000043114340F48062C4F201039A4241619B
:1030500002D1FFF74DF801E0FFF736F8E169636848
:103060001922B1F5004FA0FB020123D15A00DB0F5A
:10307000FDF724F948F21F51C5F2EB11A0FB012323
:103080005A094FF69C73C0F6FF7303F1805302FB9D
:103090000300322303EBC000A0FB01014FF4F870E2
:1030A00000EA111000EB0210C1F34211084421683C
:1030B000886010BD9A009B0FFDF700F948F21F5180
:1030C000C5F2EB11A0FB01235A094FF69C73C0F621
:1030D000FF7302FB0300322303EB0010A0FB01018E
:1030E000F02000EA511000EB0210C1F34311084434
:1030F0002168886010BD000082B00499DDF808C026
:10310000012940F64051C0F203016FD1826B4FF6A6
:10311000BF7322F480328263C268CFF6BD731A4057
:10312000C260C2680B9B22F44012012BC26003D123
:10313000C26842F48012C26000220092009A0132FA
:103140000092009A8A4200F2A9800269002A1ED4E5
:10315000009A01320092009A8A4200F29F8002692E
:10316000002A14D4009A01320092009A8A4200F296
:1031700095800269002A0AD4009A01320092009ACE
:103180008A4200F28B800269B2F1FF3FD6DC002256
:103190000092026942F001020261009A013200923B
:1031A000009A8A427AD80269D2071AD0009A01326C
:1031B0000092009A8A4271D80269D20711D0009A0F
:1031C00001320092009A8A4268D80269D20708D078
:1031D000009A01320092009A8A425FD80269D207AF
:1031E000DBD10021BCF1010F72D169E0C268089BFC
:1031F00042F04002C26000220192019A0132019223
:10320000019A8A4250D80269002A1BD4019A0132DD
:103210000192019A8A4247D80269002A12D4019A7F
:1032200001320192019A8A423ED80269002A09D4E9
:10323000019A01320192019A8A4235D80269B2F1AB
:10324000FF3FDADC00220192026942F001020261D2
:10325000019A01320192019A8A4225D80269D20765
:103260001AD0019A01320192019A8A421CD802694D
:10327000D20711D0019A01320192019A8A4213D8E1
:103280000269D20708D0019A01320192019A8A425A
:103290000AD80269D207DBD1002106E00321BCF184
:1032A000010F15D10CE000BF0321826B002B14BF6E
:1032B00022F4803242F480328263BCF1010F07D1E4
:1032C000826842F006028260826842F020028260D8
:1032D000084602B0704700000146D0F8000E20F00A
:1032E0000300C1F8000ED1F8040840F002020020EB
:1032F000C1F80428704700002DE9F04F83B0DDF8D5
:103300004C800E9F0022B8F1000FC0F80421C0F8D5
:103310000821C0F80C21C0F81021C0F81421C0F811
:103320001821C0F81C21C0F82021C0F82421C0F8C1
:103330002821C0F82C21C0F83021C0F83421C0F871
:103340003821C0F83C210BD0826B00F5006B22F4D1
:1033500000128263826B42F40022826314E000BF99
:10336000D0F8042800F5006B42F00202C0F80428EF
:10337000826B42F400128263826B22F40022826329
:10338000866B26F4802686630026C0F8006ED0F88F
:103390000068012FC0F8006806D1DBF80070002B30
:1033A00018BF47F0010703E0DBF8003043F00307E4
:1033B000DDF83CE0DDF8309040F64055C0F2030502
:1033C0000023C0F800780193019B01330193019B16
:1033D000AB4249D80369002B1BD4019B01330193F5
:1033E000019BAB4240D80369002B12D4019B0133EF
:1033F0000193019BAB4237D80369002B09D4019B91
:1034000001330193019BAB422ED80369B3F1FF3F17
:10341000DADC002301934FF484630361019B0133E1
:103420000193019BAB421FD803699B061AD5019BF0
:1034300001330193019BAB4216D803699B0611D55A
:10344000019B01330193019BAB420DD803699B069D
:1034500008D5019B01330193019BAB4204D803695A
:103460009B06DBD4002400E0012400230293029B8E
:1034700001330293029BAB4248D80369002B1BD453
:10348000029B01330293029BAB423FD80369002B9E
:1034900012D4029B01330293029BAB4236D80369DC
:1034A000002B09D4029B01330293029BAB422DD81F
:1034B0000369B3F1FF3FDADC0023029310230361B9
:1034C000029B01330293029BAB421FD80369DB06C8
:1034D0001DD5029B01330293029BAB4216D80369B0
:1034E000DB0614D5029B01330293029BAB420DD83D
:1034F0000369DB060BD5029B01330293029BAB42AF
:1035000004D80369DB06DBD401E000BF01244FF0DF
:10351000000A0029CBF810A0CBF814A0CBF81CA00F
:1035200000F00681D0F800394FF0006707EA131366
:103530004FF67F324E1EC0F80039C0F810A9C0F80F
:1035400008297BD08B1E032B06F0030972460094DA
:1035500004D22024B9F1000F3FD165E026F0030426
:1035600000234FF0904E4FF67F384FF0000C00BF15
:1035700000EB0C05D5F82079043C0EEAE777C5F896
:103580002079C5F83039C5F82889D5F840790CF18B
:10359000800C0EEAE777C5F84079C5F85039C5F8D0
:1035A0004889D5F860790EEAE777C5F86079C5F8FB
:1035B0007039C5F86889D5F880790EEAE777C5F8DB
:1035C0008079C5F89039C5F88889D1D1DDF84C806B
:1035D0000CF12004B9F1000F26D000F510673D5919
:1035E0004FF0904C0CEAE5753B193D5100244FF625
:1035F0007F3EB9F1010F1C61C3F808E014D01D6AC9
:10360000B9F1020F0CEAE5771F621C63C3F828E0EA
:103610000AD01F6C4FF0904505EAE7771F6400273A
:103620001F654FF67F379F64DDF83090009C0029BE
:1036300096464FF67F324FF0006779D0D0F8003BC6
:10364000002E07EA1313C0F8003B4FF00003C0F848
:10365000103BC0F8082B6BD00239032906F0030C8D
:1036600004D22023BCF1000F3DD161E0009426F08C
:10367000030400234FF090474FF67F36002100BF30
:103680004518D5F8202B043C07EAE272C5F8202B38
:10369000C5F8303BC5F8286BD5F8402B01F1800107
:1036A00007EAE272C5F8402BC5F8503BC5F8486BF5
:1036B000D5F8602B07EAE272C5F8602BC5F8703BBD
:1036C000C5F8686BD5F8802B07EAE272C5F8802B45
:1036D000C5F8903BC5F8886BD2D1009C01F120035E
:1036E000BCF1000F24D000F53062D6584FF090475F
:1036F00007EAE676D118D65000264FF67F33BCF1A4
:10370000010F0E618B6013D00A6ABCF1020F07EA49
:10371000E2720A620E638B620AD00A6C4FF0904329
:1037200003EAE2720A6400220A654FF67F328A6475
:10373000DBF81010B9F1000F21F48071CBF81010F4
:103740006FF08041C0F818A0416103D1816941F058
:1037500010018161816943F60002C8F23C02114305
:10376000BEF1000F816103D0816941F008018161E0
:10377000B8F1010F05D1816941F0804141F00401A8
:103780008161204603B0BDE8F08F000001468068EB
:1037900020F0010200208A6070470000B0B50446A6
:1037A000C06820F0C040E06091B1012926D1E068F6
:1037B000002540F00050E0600120FDF7B1FF606996
:1037C000C00705F1010014D1312D0546F4D310E0F6
:1037D000E068002540F08040E06000BF0120FDF778
:1037E0009FFF6069C00705F1010002D0312D054639
:1037F000F4D33238B0FA80F04009B0BD0120B0BD3A
:10380000FEE7000048F20401411A002011F1030F05
:1038100038BF4FF0FF3070470020704748F2010179
:10382000411A0020032938BF0120704710B518B392
:10383000044600783A281FD144F6A031C0F60001B2
:103840002046FCF785FED8B144F6A731C0F600014A
:103850002046FCF77DFEB8B144F69831C0F6000171
:103860002046FCF775FE01464FF0FF30002908BFE7
:1038700048F2030010BD00BF4FF0FF3010BD00BF85
:1038800048F2010010BD00BF48F2020010BD000068
:103890004FF0FF307047000070B548F203039842C4
:1038A0002ED048F20203984258D1002A00F09881A5
:1038B00040F6006CCEF2000C12F00304A2F1010EEF
:1038C00050D00B4613F8010BDCF88050ED071CBFFD
:1038D000DCF800505FEAC5754CD1012C704600F051
:1038E0008E804878DCF88030DB071CBFDCF80030C5
:1038F0005FEAC37364D1022C73D18B1C901E7EE0EF
:10390000002A00F06D8140F6006CCEF2000C12F03F
:103910000304A2F1010E29D00B4613F8010BDCF8C9
:103920008050ED071CBFDCF800505FEAC57533D14D
:10393000012C704600F0EC804878DCF88030DB0722
:103940001CBFDCF800305FEAC37340F0C380022C78
:1039500040F0D1808B1C901EDAE000BF4FF0FF30AA
:1039600070BD00BF10460B4649E000BF10460B4635
:10397000CEE000BF4FF060452E6836B92E6826B9FC
:103980002E6816B92E68002EF6D04FF060452870CC
:10399000012C704633D0A4E74FF060452E6836B94D
:1039A0002E6826B92E6816B92E68002EF6D04FF074
:1039B00060452870012C704600F0AA80BCE700BF6B
:1039C0004FF060431D6835B91D6825B91D6815B9EC
:1039D0001D68002DF6D04FF060431870022C3FF4A4
:1039E0008CAF8878DCF88030DB0701F103031CBF63
:1039F000DCF800105FEAC17140F0F480D01EBEF127
:103A0000030F3CBF002070BD4FF0604107E000BFD6
:103A10000A7000BF043803F1040300F0E1801A7853
:103A2000DCF88060F6071CBFDCF800605FEAC67651
:103A30002CD15A78DCF88060F6071CBFDCF80060F7
:103A40005FEAC6762ED19A78DCF88060F6071CBF54
:103A5000DCF800605FEAC67630D1DA78DCF88060A6
:103A6000F6071CBFDCF800605FEAC676D2D000BF64
:103A70000E68002ECCD10E68002EC9D10E68002E23
:103A8000C6D10E68002EF3D0C2E700BF0E6836B96B
:103A90000E6826B90E6816B90E68002EF6D00A70A8
:103AA000C7E700BF0E6836B90E6826B90E6816B9AA
:103AB0000E68002EF6D00A70C5E700BF0E6836B952
:103AC0000E6826B90E6816B90E68002EF6D00A7078
:103AD000C3E700BF4FF060431D6835B91D6825B9C5
:103AE0001D6815B91D68002DF6D04FF060431870A1
:103AF000022C3FF42FAF8878DCF88030DB0701F12F
:103B000003031CBFDCF800105FEAC1717AD1D01E3C
:103B1000BEF1030F3CBF002070BD4FF0604105E0D7
:103B20000A7000BF043803F1040359D01A78DCF896
:103B30008060F6071CBFDCF800605FEAC6762BD118
:103B40005A78DCF88060F6071CBFDCF800605FEA9A
:103B5000C6762DD19A78DCF88060F6071CBFDCF8B9
:103B600000605FEAC6762FD1DA78DCF88060F6076D
:103B70001CBFDCF800605FEAC676D3D00E68002E6A
:103B8000CED10E68002ECBD10E68002EC8D10E68A3
:103B9000002EF3D0C4E700BF0E6836B90E6826B910
:103BA0000E6816B90E68002EF6D00A70C8E700BF7E
:103BB0000E6836B90E6826B90E6816B90E68002E62
:103BC000F6D00A70C6E700BF0E6836B90E6826B98F
:103BD0000E6816B90E68002EF6D00A70C4E700BF52
:103BE000002070BD4FF060410C6834B90C6824B9F6
:103BF0000C6814B90C68002CF6D04FF060410870C6
:103C0000FCE600BF4FF060410C6834B90C6824B981
:103C10000C6814B90C68002CF6D04FF060410870A5
:103C200075E700000000000040F20044C4F2020406
:103C3000FDF7B6FFFFF7E2F8FEF75EFFFFF75EF86D
:103C4000FFF796F8FFF7B2F8FFF720F89FED560B55
:103C500040F21C75C2F20005002641F2111840F234
:103C600044495BEC10ABB2EE048A2AE020464FF4E4
:103C700080410022FDF74AFE384600F045FE5246DC
:103C80005B4600F0E7FC00F0B3FC09EE100A00F020
:103C9000A7FE024646A00B46FCF788FB49A0394622
:103CA000FCF784FBB4EE489A002220468021F1EE16
:103CB00010FAD8BF0122FDF729FE4FF4FA70FDF784
:103CC0002FFD20460121FDF719FE20464FF48061AB
:103CD0000122FDF71BFE28684662016841F00101E0
:103CE000016000BF416A132908D8416A132905D829
:103CF000416A132902D8416A1429F3D3016A11EAEF
:103D0000080F07D1016A11EA090F03D1016821F0F8
:103D10000101016020464FF480610022FDF7F6FDAD
:103D20002868466220464FF40061FDF7E1FD002857
:103D3000F8D028684662016841F00101016000BFC7
:103D4000416A092908D8416A092905D8416A09291F
:103D500002D8416A0A29F3D3016A11EA080F07D190
:103D6000016A11EA090F03D1016821F00101016024
:103D7000016841F00101016020464FF40061FDF748
:103D8000B7FD0128F8D02868476A016A11EA080FD0
:103D90007FF46CAF016A11EA090F7FF467AF016825
:103DA00021F00101016061E70000000000004D40CA
:103DB00044697374616E63653A20252E3166636DC4
:103DC000090000004563686F20686967683A20252C
:103DD0006475730A000000005FEA400C08BF91F0B0
:103DE000000F4FEA8C234FEAC12243EA51514FEAB8
:103DF0001C5018BF00F5F0404FEA300018BF41F0EA
:103E000000415FEA6C5C00F02980BCF1FF3F08BF15
:103E100040F080407047130C06BF12044FF0100CA6
:103E20004FF0000C130E04BF12020CF1080C130F1C
:103E300004BF12010CF1040C930F04BF92000CF1AB
:103E4000020CD30F04BF52000CF1010C11464FF0CD
:103E50000002A0F11F00A0EB0C00704711F0004F12
:103E600008BF704731F000413FF4D5AF0B0C06BFDF
:103E700009044FF0100C4FF0000C0B0E04BF0902A8
:103E80000CF1080C0B0F04BF09010CF1040C8B0F93
:103E900004BF89000CF1020CCB0F04BF49000CF1E8
:103EA000010CCCF1200322FA03F341EA030102FAE8
:103EB0000CF2A0EB0C0000F10100704723F07F47EB
:103EC00020F07F4C80EA030000F00040ACEB0703D9
:103ED00003F57C5303F1FF032DE9804909B44FEA50
:103EE000144324EA03484FEA154B25EA0B4E0FF220
:103EF000042606EB13273E7803FB0667C7F5000789
:103F000007FB06F64FEAD64606F102064FEA54379B
:103F100007FB066CCCF1005C4FEA1C472CEA074C0F
:103F20000CFB06F507FB06F404EB15464FEA961664
:103F300049085FEA320234BF00204FF000404FEAE8
:103F4000D13706FB07FC4FEA1C4C0CFB0BF7D21BCE
:103F500003FB0CF761EB07010CFB0EF7B0EB07401E
:103F600072EB17420CFB08F734BFA2EB0742B2EB2F
:103F7000074261EB17414FEA0C444FEA910706FBF9
:103F800007FC4FEA1C4C0CFB0BF7B0EBC74072EB85
:103F9000573203FB0CF734BFA2EBC742B2EBC74268
:103FA00061EB57310CFB0EF7B0EBC70072EB5772A9
:103FB0000CFB08F734BFA2EBC702B2EBC70261EB00
:103FC00057714FEA816141EA92114FEA826242EAF7
:103FD00090124FEA806004EBCC04039F4FEAD13784
:103FE00006FB07FC4FEA1C4C0CFB0BF7D21B03FB38
:103FF0000CF761EB07010CFB0EF7B0EB074072EB1F
:1040000017420CFB08F734BFA2EB0742B2EB0742A2
:1040100061EB17414FEA8C5504EB9C244FEA910762
:1040200006FB07FC4FEA1C4C0CFB0BF7B0EBC74040
:1040300072EB573203FB0CF734BFA2EBC742B2EB73
:10404000C74261EB57310CFB0EF7B0EBC70072EBC8
:1040500057720CFB08F734BFA2EBC702B2EBC702E2
:1040600061EB57714FEA816141EA92114FEA826236
:1040700042EA90124FEA806015EB4C2544F10004AF
:104080004FEAD13706FB07FC4FEA1C4C0CFB0BF741
:10409000D21B03FB0CF761EB07010CFB0EF7B0EB37
:1040A000074072EB17420CFB08F734BFA2EB074244
:1040B000B2EB074261EB17414FEA813141EA92418D
:1040C0004FEA823242EA90424FEA80304FEA0C7661
:1040D00015EB1C1544F1000448EA03434EEA0B4873
:1040E0004FF0000EB2EB080C71EB030724BF6246E1
:1040F00039464EEB0E0E4FF0000B0018524149416D
:104100004BEB0B0BB2EB080C71EB03077BF1000BD5
:1041100024BF624639464EEB0E0E4FF0000B0018DE
:10412000524149414BEB0B0BB2EB080C71EB03070F
:104130007BF1000B24BF624639464EEB0E0E51EA6E
:10414000020718BF46F0010616EB0E7655F1000285
:1041500054F1000103D5BDE88901BDE80088BDE840
:104160008901BDE80048B619524141EB0101A3F1B4
:104170000103704780807F7E7D7C7B7A79787776BB
:1041800076757473727171706F6E6E6D6C6C6B6A34
:104190006A696868676666656464636362616160D2
:1041A000605F5F5E5E5D5D5C5C5B5B5A5A5959584F
:1041B00058575756565555555454535352525251B9
:1041C000515050504F4F4F4E4E4D4D4D4C4C4C4B0F
:1041D0004B4B4A4A4A494949484848474747474656
:1041E0004646454545444444444343434342424292
:1041F000424141419C46002B30D477002BD04FEAFE
:1042000037071CB503B44FF010004FF01001BAF19E
:10421000000F06D0BCF1000FDCBF40F0080040F0FA
:1042200008014FF000000FBCBDE810400BF1010B7E
:10423000BBF1010F08BF5FEA170722BF12F10102AD
:1042400011F101014FF0004143F1000300F0004083
:1042500043EA00007047F9D35708D0E746EA06461C
:104260004FEA164613F1400F1FDD13F1200FDFBF99
:1042700016430A46002120335B42BED0C3F120071B
:1042800046EA06464FEA164602FA07F746EA0706E6
:1042900022FA03F2C3F1200701FA07F742EA070204
:1042A00021FA03F14FF00003A7E746EA020646EAC7
:1042B00006464FEA164646EA0106BCBF46EA0646EF
:1042C000360C4FF000034FF000024FF0000194E76E
:1042D0002DE9804C70B49A46934691E8380007C89F
:1042E00031EA400C48BF34EA430C03D5FFF7E6FD42
:1042F000FFF780FFF0BCBDE8008C2DE9804C70B466
:104300009A46934691E8380007C810F0804F08BFDE
:1043100013F0804F03D100F005F8FFF76BFFF0BCFE
:10432000BDE8008C20F07F4723F07F4C80EA03003B
:1043300000F0004007EB0C03A3F57C53A3F1FE0350
:1043400092F0000F00F0B38095F0000F00F077803E
:104350002DE901494FEA114021EA00484FEA14468D
:1043600024EA064700FB06FC08FB06F607FB08F8F4
:1043700018EB06484CEB164C00FB07F718EB074808
:104380004CEB17404FEA124B22EA0B4E4FEA154610
:1043900025EA06470BFB06FC0EFB06F607FB0EFEA6
:1043A0001EEB064E4CEB164C0BFB07F71EEB074EB5
:1043B0004CEB174B18EB0B0840F1000018EB0E0B01
:1043C00058EB000840F100008F1A4FF000014FF049
:1043D00000063CBFC943661B14BFB5EB040C0021AB
:1043E0003CBFC943F61B4FEA174427EA04454FEA8E
:1043F0001C472CEA074C04FB076205FB07F70CFB84
:1044000005F616EB074642EB174204FB0CFC16EBD5
:104410000C4642EB1C421BEB060658EB02024141E4
:104420004EEA8E0E46EA9E0601D5BDE80189B61910
:10443000524141EB0101A3F10103BDE801894FEABB
:10444000144524EA05464FEA114721EA074C05FBCB
:1044500007F406FB07F70CFB06F111EB074144EBF1
:10446000174405FB0CFC11EB0C4144EB1C444FEAD8
:10447000124722EA074C05FB07F206FB07F70CFB85
:1044800006F616EB074642EB174205FB0CFC16EB53
:104490000C4642EB1C456A1854F1000148BF7047B6
:1044A000B619524141EB0101A3F10103704795F0A8
:1044B000000F37D04FEA114221EA02464FEA144773
:1044C00024EA074C02FB07F106FB07F70CFB06F496
:1044D00014EB074441EB174102FB0CFC14EB0C44BA
:1044E00041EB1C414FEA154725EA074C02FB07F553
:1044F00006FB07F70CFB06F616EB074645EB1745E0
:1045000002FB0CFC16EB0C4645EB1C42121951F158
:10451000000148BF7047B619524141EB0101A3F1B8
:10452000010370474FEA144524EA05464FEA114754
:1045300021EA074C05FB07F106FB07F70CFB06F227
:1045400012EB074241EB174105FB0CFC12EB0C424E
:1045500051EB1C414FF0000648BF7047921841EBE9
:104560000101A3F10103704703B4019841000098D1
:1045700050EAC12018BF04204A0D18BF40F00100C6
:1045800040F2FF72B2EB515F08BF40F00200012819
:1045900008BF052002B0704730380A2801D2012038
:1045A0007047002070478A68002A02DC0022FCF76E
:1045B0008DBC521E8A604A68C0B2531C4B6010709A
:1045C0007047000010B500290AD00878002807D0ED
:1045D00005487844FBF7BCFF002801D0002010BD3F
:1045E0000248784410BD0000FE050000F6050000FA
:1045F00021F0004201F00043A2F16052B2F5801FA9
:1046000028BFD2F17F6C0BD95FEA001C43EAC202DB
:1046100042EB507018BF704728BF20F00100704770
:10462000B2F5801FBCBF184670474FEA410C1CF51D
:10463000001F02D2084600F051BA70B500F07BF9B5
:1046400000000089FFF7F6BF4FF00040A0F58000A2
:10465000704700002DE9C04130B4DFF8A4C23CEA45
:10466000111418BF3CEA131400F0ED801CEA111479
:1046700081EA030544EAD57418BF1CEA131500F05B
:10468000C880A4EB050404F17F7404F500344FF0F6
:10469000004545EAC12145EAC32341EA505143EAB6
:1046A00052534FEAC0204FEAC222994208BF9042BB
:1046B00000F09D804FEA13650FF24416765D4FEAD5
:1046C000134506FB05F7C7F1807706FB07F74FEAAE
:1046D000D737A7FB03687642A7FB06CEC8F580381C
:1046E00038BFA8F1010807FB08E6A6FB028C4FF0D3
:1046F000000EE6FB03CEDCF1000CCEF1004E38BF1D
:10470000AEF1010EA6FB0C584FF00007E6FB0E873A
:10471000A1FB08C6A0FB07CE16EB0E064FF0000566
:1047200045F10005E1FB076515F1E04E7EBFA4F5FC
:1047300080345FEA46066D4116F1800745F10005B9
:104740004FEA172747EA05674FEA15254FEA06663D
:10475000A6F1DE46B6F1805F20D9384605EBC4717C
:1047600024F0010C01EB0C11BCF1FE6F02D8F0BC7F
:10477000BDE8008124425CBF01F5801E9EEAC47F33
:1047800002D4F0BCBDE80081244200F13980A1F1DF
:10479000C041F0BCBDE8004100F01BB94FEAD02099
:1047A00040EA41504FEAD1214FEAD22242EA435235
:1047B0004FEAD323A7FB028607FB036605FB0266CD
:1047C0001EEA0E0F58BFA6EB0056B6EB00564FEA96
:1047D000520E4EEAC37E18EB0E0E56EB530EBCD5AE
:1047E00018EB02085E417F1C55F10005B5E74FF458
:1047F00080154FF000074FF000064FF00008ACE7BF
:1048000001F1C04101F000414FF00000F0BCBDE8F3
:1048100000810CEA131511EA0C1F00D00CE013EA1A
:104820000C1F00F026804FF0000081EA030101F028
:104830000041F0BCBDE80081F0BCBDE8004181EA68
:10484000030100F0C6B8F0BCBDE8004170B500F04F
:1048500072F800BF097EFC3E00F007B84FF0000080
:1048600081EA030101F00041704781EA030100F091
:10487000B0B8F0BCBDE8004122494FF000007047DD
:10488000FFFDFBF9F7F5F4F2F0EEEDEBE9E8E6E415
:10489000E3E1E0DEDDDBDAD8D7D5D4D3D1D0CFCD9C
:1048A000CCCBCAC8C7C6C5C4C2C1C0BFBEBDBCBBD5
:1048B000BAB9B8B7B6B5B4B3B2B1B0AFAEADACABD0
:1048C000AAA9A8A8A7A6A5A4A3A3A2A1A09F9F9EAA
:1048D0009D9C9C9B9A99999897979695959493935C
:1048E000929191908F8F8E8E8D8C8C8B8B8A8989F3
:1048F0008888878786858584848383828281818076
:104900000000FF070000F87F10F0004248BF40425F
:10491000B0FA80F310FA03F10AD0C3F11D0303F5D6
:10492000806302EB03524FEA415002EBD121704702
:104930004FF0000070470EF1020E2EF0030E5EF8ED
:10494000046B364205D4012A43EB030515F5001F1D
:1049500012D8012841EB010C1CF5001F0CD80ED118
:104960004FEAD17C0CEB4C0C0CF1020C15F5001F3E
:1049700008BF4CEBD37C04E04FF0080C01E04FEA99
:10498000D37C0CEB4C0526FA05F606F00706B6F1CB
:10499000040C06D20EEB860CBDE870404CF0010C06
:1049A0006047DFE80CF0090B02024FF00041A1F56F
:1049B00000214FF0000070BD19461046012851EB50
:1049C000010418BFD4F5001484BF002001F0004199
:1049D00070BD0808A0F500114FEA310170470000D2
:1049E00043004FEAD30C4FEA3C0C43401FBF400743
:1049F0000CF1605113F0FE4F70471CF0006F03D1B3
:104A00000CF00041002070470CF0004343EA507066
:104A100040EACC0010B500F00EF800BF0000009294
:104A20004FEA0001FFF7D5BF4FF00041A1F500218B
:104A30004FF0000070470EF1020E2EF0030E5EF8EC
:104A4000044B244204D44FEA4102B2F17F4F11D803
:104A50004FEA4003B3F17F4F0CD80ED14FEAD07C20
:104A60000CEB4C0C0CF1020CB2F17F4F08BF4CEB7D
:104A7000D17C04E04FF0080C01E04FEAD17C0CEB54
:104A80004C0324FA03F404F00704B4F1040C06D236
:104A90000EEB840CBDE810404CF0010C6047DFE8E1
:104AA0000CF0070802024FF00040A0F5800010BD96
:104AB0000846420018BFD2F1807288BF00F0004063
:104AC00010BDF1EE100A4FF6FF71C0F2C03120EABE
:104AD000010040F04070E1EE100A7047FF2141EA0A
:104AE000D050C0057047FBF7A5BE00000240000093
:104AF000000000A00000000005400000000000C809
:104B0000000000000C4000000000409C000000007D
:104B1000194000000020BCBE00000000344000002E
:104B2000BFC91B8E00000004B5400000504BCFD021
:104B30006607E2CF010000006C4100003E8251AAEE
:104B4000DFEEA73401000000D9420000DCB5A0E28E
:104B50003A301F97FFFFFFFFB4450000FD25A0C8B6
:104B6000E9A3C14FFFFFFFFFFF3F000000000080EF
:104B700000000000FF3F0000000000800000000077
:104B800000000000000000000102030406070809FD
:104B900000000000010203043A53544445525200FD
:104BA0003A535444494E003A5354444F555400002C
:104BB000F04B00080000002018000000E801000889
:104BC000084C000818000020980D0000040200089E
:104BD0001C00000043000000F8FFFFFF0C00000075
:104BE0000E0000000F0000002E000000000000007A
:104BF00000000000000000000000000001000000B4
:084C0000100000000024F40084
:04000005080001AD41
:00000001FF
