:020000040800F2
:10000000185B002065020008152900081D2600085D
:1000100011290008C10D0008D933000800000000B4
:10002000000000000000000000000000912900080E
:10003000C50D00080000000021290008B5290008AE
:100040007F0200087F0200087F0200087F0200088C
:100050007F0200087F0200087F0200087F0200087C
:100060007F0200087F0200087F0200087F0200086C
:100070007F0200087F0200087F0200087F0200085C
:100080007F0200087F0200087F0200087F0200084C
:100090007F0200087F0200087F0200087F0200083C
:1000A0007F020008992A00087F0200087F020008EA
:1000B0007F0200087F0200087F0200087F0200081C
:1000C0007F0200087F0200087F0200087F0200080C
:1000D0007F0200087F0200087F0200087F020008FC
:1000E0007F0200087F0200087F0200087F020008EC
:1000F0007F0200087F0200087F0200087F020008DC
:100100007F0200087F0200087F0200087F020008CB
:100110007F0200087F0200087F0200087F020008BB
:100120007F0200087F0200087F0200087F020008AB
:100130007F0200087F0200087F0200087F0200089B
:100140007F0200087F0200087F0200087F0200088B
:100150007F0200087F0200087F0200087F0200087B
:100160007F0200087F0200087F0200087F0200086B
:100170007F0200087F0200087F02000800000000E4
:100180007F0200087F0200087F0200087F0200084B
:100190007F0200087F0200087F0200087F0200083B
:1001A0007F0200087F0200087F02000800F002F8CA
:1001B00000F049F80AA090E8000C82448344AAF1B8
:1001C0000107DA4501D100F03EF8AFF2090EBAE8B6
:1001D0000F0013F0010F18BFFB1A43F0010318477B
:1001E000F483000014840000103A24BF78C878C15A
:1001F000FAD8520724BF30C830C144BF04680C602D
:10020000704700000023002400250026103A28BF74
:1002100078C1FBD8520728BF30C148BF0B60704778
:10022000662907F03284002070471FB507F01BFCD9
:1002300000F090FC04000020002106F0FFFFE060C9
:100240001FBD10B510BD00F085FD1146FFF7EDFF95
:1002500003F0C4F800F0A3FD03B4FFF7F2FF03BC02
:1002600000F0A6FD0948804709480047FEE7FEE781
:10027000FEE7FEE7FEE7FEE7FEE7FEE7FEE7FEE756
:1002800004480549054A064B70470000852A0008C6
:10029000AD01000818550020185B002018570020F9
:1002A0001857002053EA020C00F069802DE9F04B4A
:1002B0004FF00006002B1FBFB3FA83F503FA05F4D5
:1002C00024FA05F65E4012BF1643B2FA82F502FA2E
:1002D00005F4C5F120051EBF22FA05FC44EA0C0412
:1002E000203556EA044C4FEA144418BF641C4FF002
:1002F00000084FF00009904271EB030C39D300293C
:1003000019BFB1FA81F701FA07F6B0FA80F700FADF
:1003100007F6C7F120071EBF20FA07FC46EA0C06C5
:100320002037B6FBF4FCA7EB0507103F07F01F0BC7
:10033000CBF120062CFA06F60CFA0BFB44BFB346B1
:100340000026202FA4BF5E464FF0000B5BEA060C90
:1003500008BF4FF0010B19EB0B0948EB0608ABFB8C
:10036000027C06FB02CC0BFB03CCC01B71EB0C0127
:10037000C1E70B46024641464846BDE8F08B13B53F
:10038000084318BF4FF0FF300146AFF30080BDE8CF
:100390001C4070470FB41CB50C0007AA009007D092
:1003A0004142A14202D32044401E01E04FF0FF3001
:1003B000074B7B4469460190069800F07EFB0020C5
:1003C000002C01D0009908701CBC5DF814FB0000E3
:1003D0002B0700002DE9F0474FF0000A894604463C
:1003E000C0F820A02046E1688847002876D025285C
:1003F00006D0D4E901219047206A401C2062F1E731
:10040000E168204600258847C4F81CA0064600275E
:10041000C4F818A02A2E09D0304606F007FF38B3DA
:1004200004EB8708303EC8F8186019E059F8041B3F
:10043000204604EB87029161E1688847012F064658
:1004400018D1E069002820DA25F020051DE0D8F851
:10045000180000EB800006EB40003038C8F81800A8
:100460002046E1688847064606F0E0FE0028EED107
:10047000012F0AD02E2E08D12046E16888477F1C24
:100480000646022F45F02005C4DBA069002803DAE8
:10049000404245F00105A061E80701D025F01005B4
:1004A000B6B1A6F14100192802D8203645F40065FE
:1004B0004A463146204625604D46FFF7B1FE58B109
:1004C000012806D0ED1D25F0070000F1080989E795
:1004D00004E005F1040985E730468AE7206ABDE8B3
:1004E000F087032A40F2308010F0030C00F01580F2
:1004F00011F8013BBCF1020F624498BF11F801CB27
:1005000000F8013B38BF11F8013BA2F1040298BF8B
:1005100000F801CB38BF00F8013B11F0030300F0F5
:10052000E782083AC0F0088051F8043B083A51F8D5
:1005300004CBA0E80810F5E7121D5CBF51F8043B9E
:1005400040F8043BAFF30080D20724BF11F8013B11
:1005500011F801CB48BF11F8012B24BF00F8013B73
:1005600000F801CB48BF00F8012B704702F0FF03F1
:1005700043EA032242EA024200F024B84FF00002AC
:100580000429C0F0128010F0030C00F01B80CCF1A5
:10059000040CBCF1020F18BF00F8012BA8BF20F813
:1005A000022BA1EB0C0100F00DB85FEAC17C24BF67
:1005B00000F8012B00F8012B48BF00F8012B704711
:1005C0004FF0000200B5134694469646203922BFEC
:1005D000A0E80C50A0E80C50B1F12001BFF4F7AF37
:1005E000090728BFA0E80C5048BF0CC05DF804EB19
:1005F000890028BF40F8042B08BF704748BF20F887
:10060000022B11F0804F18BF00F8012B704700003B
:1006100030B44FF0013C50F8042B51F8043BCCFAB5
:1006200052F4D51A20D1FCB950F8042B51F8043BF0
:10063000CCFA52F4D51A17D1B4B950F8042B51F8AA
:10064000043BCCFA52F4D51A0ED16CB950F8042BF5
:1006500051F8043BCCFA52F4D51A05D1002CDAD06B
:1006600030BC4FF00000704729BAB1FA81F111F0A7
:100670001801D1F120008440F2D1CA40CB4012F0E1
:10068000FF0213F0FF0330BCD01A70477047704769
:1006900070472DE9FF4F0C461E464FF0FF378BB0D9
:1006A000D2E90001DDF860800A908A46C1F30A555C
:1006B00005B93D46002108464FF00000BAF1000F91
:1006C00000F4400005DA00EB80004FF4400101EA3D
:1006D00050004FEA9059B9F1010F00DDB9460A9870
:1006E00050EA4A000ED044F61050A5F2FF354543BB
:1006F0002F14B8F1000F1ED07542291E1EDDC9F15E
:1007000000021CE0B8F1010F4FF0000001D03021D1
:1007100003E0F24305E02154401CB042FBDB3046CD
:100720000022002121540B99C1F80880C1E9002062
:100730000FB0BDE8F08FBD1B6D1CDEE74A4600DA46
:10074000694206A800F090FA06AB93E8070003ABF5
:1007500083E8070050460A9906F088F98DE80700FB
:10076000A0F500501F3800900398002D0ADD42F2DA
:100770001F014A460844002303A90390684606F077
:10078000F1FB09E0A0F500504A461F38002303A9F9
:100790000390684606F0FBFB8DE807000004000CA0
:1007A00003D04FF0FF30410800E01046B8F1000FD1
:1007B00003D00022009215461EE0751E05D400F0FD
:1007C000CDF9303262556D1EF9D5B346012208438A
:1007D00002D000227F1C04E02078302801D10022C2
:1007E0007F1E002A099784D01DE0112D07DA00F042
:1007F000B5F9303262556D1C50EA0102F5D108435B
:1008000002D00098C8B10EE00021681E05E0235C0C
:10081000625C63542254401E491C8142F7DBAB46A4
:10082000A81B401E0990002004F80B000B98099AA1
:10083000C0F80880C0E9002B7AE711264FF00008C5
:1008400057E72DE9F04F88460446D21D22F00701F4
:1008500091B0D1E90001CDE90A0106F0CFFC0246D2
:100860000B98C00F01D02D2007E02068810701D52B
:100870002B2002E0202101EAC000032A099001D0C8
:10088000072A05DB03464146204600F0ADF90BE19F
:100890002078800601D5E06900E00620B8F1650FF8
:1008A000814606D0B8F1660F18D0B8F1670F70D145
:1008B00031E00020B9F1110F009001DB112301E0BC
:1008C00009F101030AAA01A90CA8FFF7E2FEDDE97C
:1008D0000C70002609F10105834647E001204B46D4
:1008E00000904FF000470AAA01A90CA8FFF7D1FE1B
:1008F000DDE90DB00C995D46002610B909F1010043
:100900000D18B9EB050003D4C0F1FF3609F101055C
:10091000A5EB09002BE0B9F1010F01DA4FF0010955
:100920000020B9F1110F0090484601DD112300E0CD
:1009300003460AAA01A90CA8FFF7ABFEDDE90C707B
:100940004D4600268346207800070AD4AB4500DADE
:100950005D4601A8012D04DD411911F8011C302963
:1009600007D04F4502DA17F1040F04DA012082465E
:100970000FE06D1EEEE7002F02DCED1B3E4403E0AE
:10098000781CA84200DD7D1CB81B00F1010A4FF065
:1009900000472078000703D4AA4501DB4FF0FF3A57
:1009A0000021B7F1004F0DF143088DF8431024D01A
:1009B00002202B23002F01DA7F422D230A21021E61
:1009C000A0F1010000DC5FB197FBF1FC97FBF1F2B5
:1009D00001FB1C7C17460CF1300C08F801CDEEE74A
:1009E000A8F1010003702188090501D5452100E027
:1009F0006521A0F1010800F8011C09980FA9A1EBDD
:100A00000807FF1D00B10120411901EBEA70A1693F
:100A10003844081A401EA0612078C00602D420463F
:100A2000AFF30080099828B1D4E901219047206AEA
:100A3000401C20622078C00622D52046AFF30080FB
:100A40001EE0002E04DBB34502DD01A8805D00E05E
:100A50003020D4E901219047206A401C2062761C96
:100A6000AAF101005FEA000A0AD100F073F8C06839
:100A70000168405CD4E901219047206A401C206253
:100A8000281EA5F10105DCDC07E0D4E9012118F8F6
:100A9000010B9047206A401C2062381EA7F1010715
:100AA000F3DC2046AFF30080032011B041E60000E4
:100AB00001694A1C02610878704700B58FB0CDE922
:100AC00001310021059105497944CDE90310114612
:100AD0006846FFF77FFC0FB000BD0000E5FFFFFF99
:100AE000D1E900239A4202D2531C0B601070704768
:100AF00010B5203AC0F00B80B1E81850A0E81850AB
:100B0000B1E81850A0E81850203ABFF4F5AF5FEAFA
:100B1000027C24BFB1E81850A0E8185044BF18C99F
:100B200018C0BDE810405FEA827C24BF51F8043B46
:100B300040F8043B08BF7047D20728BF31F8023B9A
:100B400048BF11F8012B28BF20F8023B48BF00F82E
:100B5000012B7047004870473000002030B5B0F1DD
:100B60000A0271F100034FEA900E4EEA817EB0EB6B
:100B70000E0061EB91014FEA101E4EEA017E10EB70
:100B80000E0041EB11114FEA102E4EEA016E10EBF0
:100B90000E0041EB11214FEA104E4EEA014E10EBD0
:100BA0000E0041EB1141401841F100014FEAD00025
:100BB00040EA41704FEAD1014FEA810444EA90745F
:100BC00010EB800544EB01046D1944EB0404521B47
:100BD000A3414FF0000348BF0A3200D530BD401C8E
:100BE00041F1000130BD00002DE9F0411F460446EF
:100BF00003260168072A01F4006004DB08B116A58A
:100C000005E016A503E008B115A500E015A521F043
:100C100010002060A069C01EA0610FB1401EA0613D
:100C20002046AFF300804FB1D4E901213846904708
:100C3000206A401C2062C01C206206E0206AFAE79D
:100C4000D4E9012115F8010B9047761EF8D2204611
:100C5000AFF30080BDE8F0814E414E006E616E0042
:100C6000494E4600696E66002DE9F04781461646FA
:100C70008AB0354878440DC88DE80D003248784474
:100C8000801C03AC0DC884E80D0041F69B3008447D
:100C9000372190FBF1F290FBF1F5A5F1800501FB06
:100CA00012041B3C02D56442012000E00020DFF862
:100CB00098A080460027FA44AAF1BE0A0EE0E00799
:100CC0000AD03246684607EB470101230AEB81014F
:100CD00006F05DF98DE8070064107F1C002CEED152
:100CE000194F7F44AE3F19E0E80715D007EB041019
:100CF0000DF1180A90E80E008AE80E00C068F04274
:100D000001D1981908903246012306A903A806F0DC
:100D10003EF903AB83E807006D10641C002DE3D19E
:100D20004FF0010332466946B8F1000F03A802D024
:100D300006F018F901E006F02AF9C9E90001C9F83E
:100D400008200AB0BDE8F087946E000000487047A4
:100D5000100000207546FFF7F9FFAE460500694612
:100D6000534620F00700854618B020B5FFF788FAF3
:100D7000BDE820404FF000064FF000074FF000089C
:100D80004FF0000BAC46ACE8C009ACE8C009ACE8D9
:100D9000C009ACE8C00921F007018D46704710B5C5
:100DA0000446AFF300802046BDE81040FFF754BA78
:100DB00001491820ABBEFEE7260002007047000084
:100DC000FEE7000070470000EFF3108072B600BF2E
:100DD000FEE70000B0B5044600F0F0F8054640F22A
:100DE0000000C2F200000078611C18BF044400BF7C
:100DF00000F0E4F8401BA042FAD3B0BD2DE9F04F5B
:100E000082B000F13E4242F2004502F1FF77C4F2A7
:100E100002050A2243F6004E4FEAB726A84208BF51
:100E20000922C4F2010E092E38BF4FEAB72201256C
:100E3000002600274FF00008009208E008F10108A2
:100E40000437B8F1100F06F1020600F0A7800C6815
:100E500005FA08F914EA090FF0D0D1F804B003221A
:100E60000BF0030CACF10104B240012C6FEA020A52
:100E700010D88268CC6802EA0A02B4402243826039
:100E80004268CBF3001422EA090204FA08F4224370
:100E9000426005E0BCF1030F02D14FF0030C20E0EB
:100EA000C2688C6802EA0A02B4402243BCF1020F15
:100EB000C26016D16FF0030202EA58020244D2F86F
:100EC00020C007F01C050F230C69AB402CEA03037C
:100ED00004FA05F52B431362D1F804B001250BF099
:100EE000030C02680CFA06F302EA0A021A431BF426
:100EF000403F0260A2D0002243F644030192C4F2B4
:100F000002031A684FF6084C42F480421A601A68CD
:100F1000CFF6FF7C02F480420192019A28F003028E
:100F2000724452F80C3007F00C050F24AC40A34378
:100F3000009C04FA05F52B4342F80C30DEF808203B
:100F40004B6842EA090543F60C4CDC0258BF22EA22
:100F50000905CEF80850C4F2010CDCF800209C0210
:100F600042EA090558BF22EA0905CCF80050DEF82C
:100F700004209C0342EA090558BF22EA0905CEF87D
:100F80000450DEF80020DB0342EA090558BF22EADC
:100F90000905CEF80050012550E700BF02B0BDE8BA
:100FA000F08F00000069084018BF01207047000062
:100FB000002A08BF090481617047000044F61C60E4
:100FC000C2F200000068704790F83D20202A1CBF44
:100FD00002207047242280F83D200268136823F025
:100FE00001031360536A23F010035362536A1943D9
:100FF0005162116841F001011160202180F83D101B
:101000000020704790F83D20202A1CBF0220704726
:10101000242280F83D20026889B2136823F001037E
:101020001360D2F824C04FF6F07303EA0C0319439F
:101030005162116841F001011160202180F83D10DA
:101040000020704770B5B8B3044690F83D0028B949
:10105000002084F83C00204600F0ECFA242084F8BC
:101060003D002068016821F001010160016841F440
:1010700000410160016821F40041016000F0B8FD09
:1010800048F28041C0F21E0140F60013D4F804E09B
:1010900088424FF00001C0F23D0348F2A16C4FF0CE
:1010A000000238BF01219842C0F2010C38BF012272
:1010B000E64538BF0A460AB1012070BD4DF683618E
:1010C000C4F21B31A0FB01122168950C4B684FF450
:1010D000967623F03F0343EA9243754344F6D35692
:1010E0004B60C1F262060B6AA5FB0656B50923F0F8
:1010F0003F03E64538BF950C6A1C1A430A62CA6969
:1011000048F2A0664CF6FF73C0F20106B64522EA2B
:1011100003020BD801384FEA4E03B0FBF3F0013065
:101120006FF31F30042898BF04201EE0A368013825
:1011300063B119230EFB03F3B0FBF3F001306FF33F
:101140001F3078B100F5804008E000BF0EEB4E0381
:10115000B0FBF3F001306FF31F3028B100F5004011
:1011600003E000BF012000E001201043C8610868CF
:10117000D4E9072320F0C0001043184308608868B2
:1011800048F2FF3204F10C0690434CCE1843104352
:10119000A5698860C86820F0FF0030432843C86014
:1011A000086840F00100086000202021206484F8D5
:1011B0003D10206384F83E0070BD00002DE9F0432F
:1011C00081B01F46164688460446FFF7F7FE94F89E
:1011D0003D10202920D1054620688169890717D54F
:1011E000FFF7ECFE401B1928F6D9002020212063D0
:1011F00084F83D1084F83E00216C022641F0200165
:10120000216484F83C00304601B0BDE8F08300BFA3
:1012100094F83C10012905D10226304601B0BDE802
:10122000F08300BF012184F83C100168C90703D195
:10123000016841F001010160016821F40061016071
:10124000212184F83D10102184F83E1000212164F2
:1012500066626785618D21850021CFF6FF71E162AD
:10126000E16A11F5803F18BF012919D1016841F4E5
:10127000807101604169DDF82090C90723D119F11F
:10128000010116D0B9F1000F46D000BFFFF796FE5E
:10129000401B484542D820684169C907F6D012E092
:1012A0000829E3D0216B1229E0D0E3E74169C9079F
:1012B00009D14169C90706D14169C90704BF41691C
:1012C0005FEAC171F2D02169B1F5804F02D1FE21F0
:1012D00061E000BF062101EAD811F03101614169E6
:1012E000090757D4416919F1010201F480612FD037
:1012F000002946D1B9F1000F00F04281FFF75EFEF0
:10130000401B484500F23E8120684169090741D4ED
:1013100041694905F2D534E0FFF750FE0020202155
:10132000206384F83D1084F83E00216C012641F0D2
:1013300020012164216884F83C000868C00544BF8E
:101340004FF400702064304601B0BDE8F08300BF68
:10135000B9B9416909071DD44169490511D44169E9
:10136000090717D4416949050BD44169090711D40C
:101370004169490505D4416909070BD4416949050B
:10138000E7D5016841F4007101606FF4806141614B
:101390000420F8E0FF2101EA0801016141698907A1
:1013A0003AD4416919F1010201F4806112D051BBB4
:1013B000B9F1000F00F0E080FFF700FE401B484548
:1013C00000F2DC8020684169890725D4416949051C
:1013D000F2D518E0B9B9416989071DD441694905B9
:1013E00011D44169890717D4416949050BD4416972
:1013F000890711D44169490505D4416989070BD48E
:1014000041694905E7D5016841F4007101606FF455
:10141000806141610420B6E0002600964169009198
:10142000816900910099218D002900F0958009F1D2
:101430000108014651F8142F120635D4B8F1000FF7
:1014400016D0B9F1000F00F0AF8000BF086840056A
:1014500000F1B280FFF7B2FD401B484500F2A980C1
:101460002068014651F8142F1206EFD51CE000BF8A
:101470000A68520500F1A0800A68120614D40A68AE
:10148000520500F199800A6812060DD40A685205C7
:1014900000F192800A68120606D40A68520500F12B
:1014A0008B800A681206E3D5636A194611F8012B8E
:1014B00002616162618D01396185278D0146A7F165
:1014C000010CA4F828C051F8142F52070DD55FEA7B
:1014D0000C420AD05A78A7F1020C02619A1C62628F
:1014E000628D013A6285A4F828C00A6852072FD499
:1014F000B8F1000F14D0B9F1000F7BD00868400597
:1015000000F18080FFF75AFD401B484577D82068DE
:10151000014651F8142F5207F0D5B4F828C017E04F
:101520000A6852056ED40A68520711D40A68520537
:1015300068D40A6852070BD40A68520562D40A6854
:10154000520705D40A6852055CD40A685207E7D5E9
:101550005FEA0C417FF46DAF016841F400710160F6
:10156000202084F83D0084F83E6084F83C603046DA
:1015700001B0BDE8F08300BFFFF720FD202002E0AE
:10158000FFF71CFD202000212022216384F83D204C
:1015900084F83E10226C01261043206484F83C102D
:1015A000304601B0BDE8F0830868400504D4FFF779
:1015B00005FD202004E000BF6FF480600860042077
:1015C00000212022216384F83D2084F83E10226C03
:1015D0001043206484F83C10206C042825D1206836
:1015E0000126016841F400710160304601B0BDE898
:1015F000F08300BF0868400504D4FFF7DFFC20201B
:1016000004E000BF6FF48060086004200021202205
:10161000216384F83D2084F83E10226C104320643E
:1016200084F83C10206C0428D9D00126304601B043
:10163000BDE8F083B0B586B0016845F20040C4F261
:101640000000814202D006B0B0BD00BF002443F6C6
:1016500030050194C4F20205296800F5D83041F044
:1016600002012960296801F00201019101994FF4FA
:10167000407101911221CDE902140321049104214A
:10168000059101A9FFF7BAFB0094286940F4001006
:101690002861286900F400100090009806B0B0BDE1
:1016A00040F2000044F61C61C2F20000C2F20001E8
:1016B00000780A68104408607047000080B543F65F
:1016C0000040C4F20200016841F400710160016849
:1016D00041F480610160016841F480710160032080
:1016E00000F0C4F80F2000F005F800F05DF80020CD
:1016F00080BD0000B0B586B0002543F644010195D9
:10170000C4F202010A68044642F001020A60096854
:1017100001A801F0010101910199694600F048FA20
:1017200000F07AFA4DF683614000C4F21B31A0FB51
:1017300001014FF0FF3000EB914140F2E0600022E8
:10174000C2F20000C4F2010240F2E733C0E9002116
:10175000C0E902530561856100F0C2FC054618B17D
:10176000284606B0B0BD00BF40F2E060C2F2000003
:1017700000F000FD05460028F2D1192000F036F8EF
:101780000F2C0DD8192021460022002500F042F828
:1017900040F20400C2F200000460284606B0B0BD6A
:1017A0000125284606B0B0BD82B0002043F64001B6
:1017B0000190C4F202014A6842F480424A604A68D9
:1017C00002F480420192019A00900868002240F0E1
:1017D0008050086008680F2100F080500090009849
:1017E0006FF0010002B000F015B80000002848BFFB
:1017F0007047C1B200F01F00012202FA00F04EF261
:101800000012CEF2000242EAD10121F00301086089
:101810007047000010B54EF60C5CCEF2000CDCF800
:101820000030C3F3022E8EF00704042C28BF0424DA
:10183000BEF103034FF0FF3E0EFA04F438BF00235D
:10184000A14399400EFA03F39A43114300F00F02AB
:1018500000F160430901043A03F56443624400283F
:1018600048BF02F10C03197010BD00004EF60C5178
:10187000CEF200010A684FF6FF031A4060F30A2215
:1018800042F0806040F0FD70086070472DE9F04F35
:101890008BB0002800F086800446056890F8BD04EF
:1018A00028B9002084F8BC04204600F08FF80320FB
:1018B00084F8BD04E86BC0055CBF0020206120688F
:1018C00001F050FD206804F11C0A0A90D4E90C5084
:1018D00004F1040E9AE8C0079EE80E58CDE90850BE
:1018E00003A880E8C0030A988DE80058CDF81CA032
:1018F00001F0EEF9002852D120680021002501F006
:1019000039FD616861B301200023002203EBC303AA
:1019100004EB830787F83C20D3B20132A7F84430A8
:10192000D3B2994287F83D0087F84050C7E9125575
:101930007D65EBD800200023002200BF03EBC3032A
:1019400004EB830787F87C220132D3B2994287F8EF
:101950007D0287F88002C7E9A200C7F89402EDD89B
:10196000A06822680A90D4E90C5004F1140E04F126
:10197000240AD4E903379EE840589AE80007CDE9E5
:10198000085002A880E8005810460A9ACDE900766F
:10199000CDE90589CDF81CA001F09AFA40B10220EA
:1019A00084F8BD04012528460BB0BDE8F08F00BFC8
:1019B0000025012084F8385084F8BD04206801F027
:1019C00077FA28460BB0BDE8F08F0000F0B587B07D
:1019D0000068B0F1A04F01D007B0F0BD002743F67A
:1019E00030060297C4F202063068002440F001007D
:1019F00030603068C4F2020400F0010002900298E6
:101A00004FF4E85002900220CDE90307032005902F
:101A10000A2002AD069020462946FFF7EFF94FF461
:101A20000070CDE90207204629460497FFF7E6F942
:101A3000706840F0800070600197706940F48040E9
:101A40007061706900F480400190019807B0F0BDAA
:101A50002DE9F041002800F08B8043F60808C4F21D
:101A600002080446D8F8F8030D4600F00F0088423B
:101A700007D288F8F853D8F8F80300F00F00A8420E
:101A800076D12068810717D5410705D5D8F8001011
:101A900041F4E051C8F80010010705D5D8F800104E
:101AA00041F46041C8F80010D8F80010A26821F095
:101AB000F0011143C8F80010C0073FD1D8F8F8036F
:101AC00000F00F00A84207D988F8F853D8F8F803B7
:101AD00000F00F00A8424BD12068410707D5D8F885
:101AE0000010E26821F4E0511143C8F8001000072B
:101AF00008D5D8F80000216920F4604040EAC10010
:101B0000C8F8000000F09CF8D8F8001047F624321E
:101B1000C1F30311C0F60002515C40F2080220FA42
:101B200001F140F20400C2F200000068C2F20002BB
:101B30001160FFF7DFFD0020BDE8F0816068811EC5
:101B4000022907D258F8081C89015CBF0120BDE8B2
:101B5000F08111E0012807D158F8081C89035CBF07
:101B60000120BDE8F08107E058F8081C890703D47C
:101B70000120BDE8F08100BFD8F8001021F003017A
:101B80000843C8F80000FFF719FA064641F2883703
:101B9000D8F80000616800F00C00B0EB810F8DD028
:101BA000FFF70CFA801BB842F2D90320BDE8F081A0
:101BB0000F22026043F60802C4F20202136803F027
:101BC00003034360136803F0F0038360136803F4B6
:101BD000E053C360D2F800C04FF4E05303EADC03E3
:101BE0000361D2F8F80300F00F00086070470000AE
:101BF00040F2080043F60801C2F20000C4F20201FC
:101C00000068096847F63432C1F38221C0F6000249
:101C1000515CC8407047000040F2080043F60801DC
:101C2000C2F20000C4F202010068096847F63432CB
:101C3000C1F34231C0F60002515CC8407047000059
:101C400010B543F60404C4F20204606800F00C010D
:101C500042F200400829C0F2F40007D0042918BF5E
:101C600010BD41F20020C0F27A0010BD216801F0E1
:101C70003F02216823684902C3F3881106D4A1FBFF
:101C800000010023FEF70EFB07E000BF41F2002039
:101C9000C0F27A004843B0FBF2F021680222C1F39F
:101CA000014102EB4101B0FBF1F010BD2DE9F04123
:101CB00082B0002868D00446007843F60006C007CA
:101CC000C4F202060BD0B06800F00C00042840F00B
:101CD0009F803068800302D56068002854D0207847
:101CE00080071AD5B06810F00C0F09D0B06800F06A
:101CF0000C00082840F0A6807068400200F1A28025
:101D00003068800702D5E06801283DD1306821693C
:101D100020F0F80040EAC10030602078000737D496
:101D2000207840074CD4A56955B3B06800F00C008A
:101D3000082840F0BB80012D26D07068E16900F4CE
:101D400080028A4220D1216A00F03F028A421BD1E0
:101D500047F6C071626A0140B1EB821F14D1A16ADB
:101D60004FF6FF73C903994300F44032A1F5803167
:101D70008A4209D1E16A00F07060B0EB016F03D1D3
:101D8000002002B0BDE8F081012002B0BDE8F08182
:101D90006069002840F20000C4F2472076D001219B
:101DA000C0F8801EFFF70AF9054600BF706F800774
:101DB000B6D4FFF703F9401B0228F7D9DDE000BFD6
:101DC000306C10F080580AD100200190306C40F047
:101DD00080503064306C00F080500190019847F2E0
:101DE0000007C4F200073868C00541D4386840F4E1
:101DF00080703860FFF7E2F8054600BF3868C0051C
:101E000036D4FFF7DBF8401B0228F7D9B5E000BF56
:101E1000B06800F00C00082803D1706840023FF55C
:101E200058AF6068B0F5803F07D0B0F5A02F40F004
:101E30008D80306840F480203060306840F480301D
:101E400030608DE0E068002852D00020C4F24720C6
:101E500001210160FFF7B2F8054600BF3068800736
:101E60003FF554AFFFF7AAF8401B0228F6D984E0EB
:101E7000A068012805D005284ED1306F40F004003D
:101E80003067306F40F0010030674FE00021C0F84C
:101E9000801EFFF793F80546706F80077FF540AF0F
:101EA000FFF78CF8401B0228F6D966E00027C4F241
:101EB000472700203866FFF781F8022D05460BD131
:101EC000306880015ED5FFF779F8401B02284FF09B
:101ED0000300F5D955E700BF306880017FF550AFAA
:101EE000FFF76CF8401B02284FF00300F4D948E7D5
:101EF0000020C4F2472000210160FFF75FF805468B
:101F0000306880077FF509AFFFF758F8401B0228BB
:101F10004FF00300F4D934E7316F002821F00101BC
:101F20003167316F21F0040131674DD0FFF746F87A
:101F3000054641F2883700BF306F800756D4FFF75F
:101F40003DF8401BB842F7D917E000BF31680028C0
:101F500021F480313160316821F4802131604FD02B
:101F6000FFF72CF8054600BF306880033FF5B7AE99
:101F7000FFF724F8401B6428F6D9032002B0BDE81F
:101F8000F08100BF04F11C052FCD084340EA821008
:101F9000D9034FF6FF729143A1F5803140EA056005
:101FA0000843706001203866FFF708F8044600BF58
:101FB000306880013FF5E4AEFFF700F8001B02280F
:101FC0004FF00300F4D9DCE6FEF7F8FF054641F2D6
:101FD000883700BF306F800708D5FEF7EFFF401B42
:101FE000B8424FF00300F5D9CBE600BFB8F1000FBF
:101FF0007FF499AE306C20F08050306493E600BFDF
:10200000FEF7DCFF054600BF306880037FF567AE52
:10201000FEF7D4FF401B64284FF00300F4D9B0E66C
:10202000704700007047000010B590F83C20012A6E
:102030004FF0020251D080F83D200268D2F804E04F
:10204000D2F808C00C682EF07003234341F2FF74ED
:10205000C4F20004A24253600EDC40F2FF73C4F2EB
:1020600000039A4216DCB2F1804F2BD040F20043BD
:10207000C4F2000324E000BF40F2FF33C4F20103C6
:102080009A4213DC41F60003C4F200039A4219D0CD
:10209000002313E040F60003C4F200039A4211D07B
:1020A00040F60043C4F200030AE000BF44F200031C
:1020B000C4F201039A4205D040F20043C4F2010386
:1020C0009A4204D149682CF08003194391600121A0
:1020D000002280F83D1080F83C20104610BD000022
:1020E000002804BF0120704710B5044690F83D0059
:1020F00028B9002084F83C00204600F01FF8022098
:1021000084F83D002068211D00F0CCFC012084F8FB
:10211000460084F83E0084F83F0084F8400084F8CC
:10212000410084F8420084F8430084F8440084F8B5
:10213000450084F83D00002010BD000081B000681B
:1021400040F20041C4F20001884201D001B0704762
:102150000020009043F64000C4F20200016841F004
:1021600002010160006800F002000090009801B0D8
:102170007047000090F83D1001291CBF01207047F6
:10218000022180F83D10006841F2FF72C168C4F27C
:102190000002904241F00101C1600DDC40F2FF718C
:1021A000C4F20001884215DCB0F1804F2AD040F221
:1021B0000041C4F2000123E040F2FF31C4F201010A
:1021C000884213DC41F60001C4F20001884219D0B4
:1021D000002113E040F60001C4F20001884211D052
:1021E00040F60041C4F200010AE000BF44F20001E1
:1021F000C4F20101884205D040F20041C4F201015D
:10220000884206D1816801F00701062904BF002039
:102210007047016841F00101016000207047000033
:1022200080B590F83C20012A4FF0020200F0C280F5
:1022300080F83D20D0F800C04FF67772DCF8083007
:1022400023EA0202CCF808200B684F2B28DC1F2B56
:1022500044DD202B45D0302B43D0402B40F0AC80C8
:10226000D1F804E0C968DCF82030DCF8202022F046
:102270000102CCF82020DCF8182022F0F00242EA1B
:10228000011123F00A0242EA0E02CCF81810CCF831
:102290002020DCF8081041F0470121F0300180E0F7
:1022A0006F2B27DDB3F5005F48D0B3F5805F7AD0A0
:1022B000702B40F08180D1E901E3C968DCF8082087
:1022C00043EA0E0322F47F4243EA01211143CCF892
:1022D0000810DCF8081041F0770162E00BB1102B18
:1022E0006AD1DCF8081021F07001194341F00701B0
:1022F00057E000BF502B35D0602B5DD1D1F804E002
:10230000C968DCF8203023F01003CCF82030DCF86A
:102310001830DCF8202023F4704322F0A00243EAB6
:10232000013142EA0E12CCF81810CCF82020DCF86B
:10233000081041F0670121F0100132E0D1E901E31A
:10234000C968DCF8082043EA0E0322F47F4243EA1E
:1023500001211143CCF80810DCF8081041F4804149
:102360001FE000BFD1F804E0C968DCF82030DCF8D9
:10237000202022F00102CCF82020DCF8182022F0E6
:10238000F00242EA011123F00A0242EA0E02CCF8FE
:102390001810CCF82020DCF8081041F0570121F08B
:1023A0002001CCF808100022012180F83D10002106
:1023B00080F83C10104680BD0122F5E77047000010
:1023C00010B5016804460869800744BFC8685FEA21
:1023D000807039D40869400744BFC8685FEA40701C
:1023E0003ED40869000744BFC8685FEA007045D45E
:1023F0000869C00644BFC8685FEAC0604AD408697B
:10240000C0071CBFC8685FEAC07051D108690006E8
:1024100044BFC8685FEA006052D40869400644BF00
:10242000C8685FEA406053D40869800646BFC86840
:102430005FEA806010BD6FF0200220460A61BDE8AF
:102440001040FFF7EFBD00BF6FF0020008610120F0
:1024500020778869800743D02046FFF7AFFF45E02B
:102460006FF00400086102202077886910F4407F33
:1024700040D02046FFF7A2FF42E000BF6FF0080007
:10248000086104202077C86980073DD02046FFF707
:1024900095FF3FE06FF01000086108202077C869C1
:1024A00010F4407F3AD02046FFF788FF3CE000BFA1
:1024B0006FF001000861204600F03EF82168A5E7B2
:1024C0006FF0800008612046FFF7AAFD2168A4E7AD
:1024D0006FF040000861204600F038F82168A3E75B
:1024E000204600F025F8204600F024F8216800205E
:1024F00020776FE7204600F01BF8204600F01AF81E
:102500002168002020776CE7204600F011F8204673
:1025100000F010F821680020207769E7204600F0DD
:1025200007F8204600F006F821680020207766E7CB
:10253000704700007047000000680021C4F20101EC
:10254000884218BF7047FFF7ABB800007047000023
:10255000002804BF0120704710B5044690F83D00E4
:1025600028B9002084F83C00204600F021F82420FF
:1025700084F83D002068C16821F40051C160204604
:1025800000F02EFB2068016921F49041016141694E
:1025900021F02A014161C16841F40051C16000206D
:1025A0002021206484F83D1084F83E1010BD000006
:1025B00080B586B0016844F60000C4F20000814294
:1025C00002D006B080BD00BF002143F63002019169
:1025D000C4F20202136900F5E23043F48023136170
:1025E000136903F480230193019B0191136843F065
:1025F00008031360126802F008020192019A4FF476
:10260000407201920222CDE90221032104910721A7
:10261000059101A9FEF7F2FB06B080BDFEE70000C0
:102620002DE9F04F87B0002443F63000CDE9054492
:102630000194C4F20200016840F2004641F0040136
:1026400001600168C4F2020601F0040101910199E0
:1026500001940168002241F080010160016801F0ED
:102660008001019101990194016841F0010101602B
:10267000016801F00101019101990194016841F0A3
:1026800002010160016801F00201019101990194C8
:10269000016841F008010160016801F00801019141
:1026A00001990194016841F040010160006844F221
:1026B000814100F04000019001983046FEF778FC1F
:1026C00006F5A058404640210022FEF771FC4FF469
:1026D000005002904FF4881006F5806702ADCDE9F6
:1026E000030438462946FEF789FB322002904FF05A
:1026F00002094FF0030A4FF00B0B38462946CDE98B
:102700000394CDF814A0CDF818B0FEF777FB86201F
:10271000CDE9020904A880E8100CA6F580602946DE
:10272000FEF76CFB44F281000290012730462946F7
:10273000CDE903740594FEF761FB4FF4806002A9B4
:1027400081E88102304629460594FEF757FB4FF495
:10275000006002A981E8110230462946FEF74EFBCF
:102760004FF40050CDE9020904A880E8100C30466F
:102770002946FEF743FB4020CDE9020740462946A3
:10278000CDE90444FEF73AFB8020CDE9020440463F
:1027900029460494FEF732FB4FF42050CDE902099C
:1027A00004A880E8100C40462946FEF727FB07B036
:1027B000BDE8F08F80B540F2801045F20041C2F2D2
:1027C0000000C4F2000141F6802200234FF4804C47
:1027D000C0F2060280E80E00C0E9033CC0E9053300
:1027E000C0E90733FEF72EFC002818BFFEF7ECFA0D
:1027F00040F28010C2F200000021FEF7E5FB002845
:1028000018BFFEF7E1FA40F28010C2F2000000218A
:10281000FEF7F8FB002808BF80BDBDE88040FEF74A
:10282000D3BA000080B586B040F2287040F2004272
:102830000021C2F20000C4F2000229234FF6FF7CFF
:102840000591CDE90311CDE90011C0E90023C0E9EC
:10285000021C01618161FFF743FC002818BFFEF7ED
:10286000B3FA4FF48050029040F22870C2F2000098
:1028700002A9FFF7D5FC002818BFFEF7A5FA40F221
:102880002870C2F200006946FFF7CEFB002818BF8F
:10289000FEF79AFA06B080BD80B540F2707044F63B
:1028A0000001C2F20000C4F2000100234FF00C0C42
:1028B0004FF4E13280E80E00C0E90333C0E905C3FC
:1028C000C361FFF745FE002808BF80BDBDE880401A
:1028D000FEF77ABA80B540F2D410C2F200004FF091
:1028E000A0410422C0E90012022100220123C0E914
:1028F0000312C0E90613C0E90822C0E90B32FEF753
:10290000C5FF002808BF80BDBDE88040FEF75CBA67
:10291000FEE70000FEE700000000000000000000ED
:10292000EFF30980BFF36F8F154B1A681EF0100F7D
:1029300008BF20ED108A20E9F04F10602DE9090052
:102940004FF0500080F31188BFF34F8FBFF36F8FAC
:1029500003F010FA4FF0000080F31188BDE8090081
:1029600019680868B0E8F04F1EF0100F08BFB0EC0F
:10297000108A80F30988BFF36F8F704700BF00BFD4
:102980007C000020000000000000000000000000AB
:10299000074B19680868B0E8F04F80F30988BFF367
:1029A0006F8F4FF0000080F31188704700BF00BFA9
:1029B0007C00002080B54EF21000CEF200000068CE
:1029C00003F06AFE012808BF80BDBDE8804003F027
:1029D000F1BA0000B0B592B0002443F64000CDE952
:1029E0000A44CDE908440594CDE90344CDE9014406
:1029F0000094C4F202000168022541F08051016098
:102A0000006800F080500090009847F200000094A9
:102A1000C4F20000016841F440410160006800F424
:102A2000404000900098012006904FF480300790BD
:102A30004FF480000D9004200E90A820CDE90F05E2
:102A40000720119006A80C95FFF730F920B1EFF39D
:102A5000108072B6FEE700BF0F20CDE901054FF4EC
:102A6000C05004904FF4A050059001A80521039494
:102A7000FEF7EEFF20B1EFF3108072B6FEE700BF65
:102A800012B0B0BD4EF68850CEF20000016841F49D
:102A9000700101607047000040F2E060C2F2000087
:102AA000FFF78EBC10B540F6FF3E0368C4F2000E7F
:102AB00040F2004C7045C4F2010C27DCB0F1804FAD
:102AC00031D040F20042C4F2000290422BD040F6D6
:102AD0000002C4F20002904225D041F6FF72C4F217
:102AE0000002904229DC70453CDCB0F1804F5FD0A1
:102AF00040F20042C4F20002904259D040F6000277
:102B0000C4F20002904253D056E000BF40F60042AB
:102B1000C4F20002904206D0604504D00022C4F204
:102B200001029042D9D14A6823F07003134341F661
:102B3000FF72C4F200029042D5DD43F6FF72C4F288
:102B40000102904222DC42F20002C4F200029042F2
:102B50002ED00022C4F20102904229D0604527D035
:102B60002AE000BF40F60042C4F2000290421FD0AB
:102B700041F60002C4F20002904219D041F6004230
:102B8000C4F20002904213D016E000BF44F20002EB
:102B9000C4F2010290420BD044F60002C4F20102DA
:102BA000904205D044F20042C4F20102904203D1A7
:102BB000CA6823F44073134323F080024B69D1F8B1
:102BC00000E08C681A430260C46240F48062C0F87E
:102BD00028E0624504BF096901630121416110BD1C
:102BE00010B504460068D4E902C22369016921F4E2
:102BF000405111430161626943EA0C01E3691143E9
:102C0000C268194349F20C639A431143C160416998
:102C1000A26921F4407141F20043114340F4806203
:102C2000C4F201039A42416102D1FEF7F5FF01E0CF
:102C3000FEF7DEFFE16963681922B1F5004FA0FBE2
:102C4000020123D15A00DB0FFDF72CFB48F21F5184
:102C5000C5F2EB11A0FB01235A094FF69C73C0F695
:102C6000FF7303F1805302FB0300322303EBC00028
:102C7000A0FB01014FF4F87000EA111000EB021004
:102C8000C1F3421108442168886010BD9A009B0F6F
:102C9000FDF708FB48F21F51C5F2EB11A0FB012321
:102CA0005A094FF69C73C0F6FF7302FB03003223F0
:102CB00003EB0010A0FB0101F02000EA511000EB33
:102CC0000210C1F3431108442168886010BD000060
:102CD00082B00499DDF808C0012940F64051C0F2E5
:102CE00003016FD1826B4FF6BF7322F4803282638F
:102CF000C268CFF6BD731A40C260C2680B9B22F453
:102D00004012012BC26003D1C26842F48012C2603B
:102D100000220092009A01320092009A8A4200F248
:102D2000A9800269002A1ED4009A01320092009AFA
:102D30008A4200F29F800269002A14D4009A01326C
:102D40000092009A8A4200F295800269002A0AD411
:102D5000009A01320092009A8A4200F28B80026946
:102D6000B2F1FF3FD6DC00220092026942F001027C
:102D70000261009A01320092009A8A427AD802696E
:102D8000D2071AD0009A01320092009A8A4271D872
:102D90000269D20711D0009A01320092009A8A4249
:102DA00068D80269D20708D0009A01320092009ACE
:102DB0008A425FD80269D207DBD10021BCF1010F42
:102DC00072D169E0C268089B42F04002C2600022F2
:102DD0000192019A01320192019A8A4250D8026905
:102DE000002A1BD4019A01320192019A8A4247D8E3
:102DF0000269002A12D4019A01320192019A8A4290
:102E00003ED80269002A09D4019A01320192019A3E
:102E10008A4235D80269B2F1FF3FDADC0022019222
:102E2000026942F001020261019A01320192019AA3
:102E30008A4225D80269D2071AD0019A013201923A
:102E4000019A8A421CD80269D20711D0019A013234
:102E50000192019A8A4213D80269D20708D0019AD6
:102E600001320192019A8A420AD80269D207DBD163
:102E7000002106E00321BCF1010F15D10CE000BFD9
:102E80000321826B002B14BF22F4803242F4803283
:102E90008263BCF1010F07D1826842F006028260B2
:102EA000826842F020028260084602B0704700004B
:102EB0000146D0F8000E20F00300C1F8000ED1F852
:102EC000040840F002020020C1F804287047000006
:102ED0002DE9F04F83B0DDF84C800E9F0022B8F151
:102EE000000FC0F80421C0F80821C0F80C21C0F878
:102EF0001021C0F81421C0F81821C0F81C21C0F816
:102F00002021C0F82421C0F82821C0F82C21C0F8C5
:102F10003021C0F83421C0F83821C0F83C210BD052
:102F2000826B00F5006B22F400128263826B42F424
:102F30000022826314E000BFD0F8042800F5006B83
:102F400042F00202C0F80428826B42F4001282634D
:102F5000826B22F400228263866B26F480268663CD
:102F60000026C0F8006ED0F80068012FC0F8006895
:102F700006D1DBF80070002B18BF47F0010703E013
:102F8000DBF8003043F00307DDF83CE0DDF830907B
:102F900040F64055C0F203050023C0F800780193C5
:102FA000019B01330193019BAB4249D80369002B7C
:102FB0001BD4019B01330193019BAB4240D80369B1
:102FC000002B12D4019B01330193019BAB4237D8F4
:102FD0000369002B09D4019B01330193019BAB4290
:102FE0002ED80369B3F1FF3FDADC002301934FF4DD
:102FF00084630361019B01330193019BAB421FD8A2
:1030000003699B061AD5019B01330193019BAB42D7
:1030100016D803699B0611D5019B01330193019BCF
:10302000AB420DD803699B0608D5019B0133019380
:10303000019BAB4204D803699B06DBD4002400E06B
:10304000012400230293029B01330293029BAB42B3
:1030500048D80369002B1BD4029B01330293029BC7
:10306000AB423FD80369002B12D4029B0133029379
:10307000029BAB4236D80369002B09D4029B013373
:103080000293029BAB422DD80369B3F1FF3FDADC18
:103090000023029310230361029B01330293029BDE
:1030A000AB421FD80369DB061DD5029B0133029397
:1030B000029BAB4216D80369DB0614D5029B013391
:1030C0000293029BAB420DD80369DB060BD5029B32
:1030D00001330293029BAB4204D80369DB06DBD4C5
:1030E00001E000BF01244FF0000A0029CBF810A036
:1030F000CBF814A0CBF81CA000F00681D0F8003962
:103100004FF0006707EA13134FF67F324E1EC0F8E8
:103110000039C0F810A9C0F808297BD08B1E032BFA
:1031200006F003097246009404D22024B9F1000F7E
:103130003FD165E026F0030400234FF0904E4FF698
:103140007F384FF0000C00BF00EB0C05D5F820795C
:10315000043C0EEAE777C5F82079C5F83039C5F8A0
:103160002889D5F840790CF1800C0EEAE777C5F88C
:103170004079C5F85039C5F84889D5F860790EEA24
:10318000E777C5F86079C5F87039C5F86889D5F86A
:1031900080790EEAE777C5F88079C5F89039C5F8E7
:1031A0008889D1D1DDF84C800CF12004B9F1000FF1
:1031B00026D000F510673D594FF0904C0CEAE575AC
:1031C0003B193D5100244FF67F3EB9F1010F1C61C0
:1031D000C3F808E014D01D6AB9F1020F0CEAE577D4
:1031E0001F621C63C3F828E00AD01F6C4FF09045A3
:1031F00005EAE7771F6400271F654FF67F379F6456
:10320000DDF83090009C002996464FF67F324FF053
:10321000006779D0D0F8003B002E07EA1313C0F8FE
:10322000003B4FF00003C0F8103BC0F8082B6BD0F8
:103230000239032906F0030C04D22023BCF1000F4D
:103240003DD161E0009426F0030400234FF0904745
:103250004FF67F36002100BF4518D5F8202B043CDF
:1032600007EAE272C5F8202BC5F8303BC5F8286B99
:10327000D5F8402B01F1800107EAE272C5F8402B36
:10328000C5F8503BC5F8486BD5F8602B07EAE272E9
:10329000C5F8602BC5F8703BC5F8686BD5F8802B76
:1032A00007EAE272C5F8802BC5F8903BC5F8886B39
:1032B000D2D1009C01F12003BCF1000F24D000F515
:1032C0003062D6584FF0904707EAE676D118D650CC
:1032D00000264FF67F33BCF1010F0E618B6013D0D7
:1032E0000A6ABCF1020F07EAE2720A620E638B629D
:1032F0000AD00A6C4FF0904303EAE2720A6400229B
:103300000A654FF67F328A64DBF81010B9F1000FBE
:1033100021F48071CBF810106FF08041C0F818A034
:10332000416103D1816941F010018161816943F6F6
:103330000002C8F23C021143BEF1000F816103D0CC
:10334000816941F008018161B8F1010F05D18169FE
:1033500041F0804141F004018161204603B0BDE8A5
:10336000F08F00000146806820F0010200208A6092
:1033700070470000B0B50446C06820F0C040E0606F
:1033800091B1012926D1E068002540F00050E060AD
:103390000120FDF71FFD6069C00705F1010014D190
:1033A000312D0546F4D310E0E068002540F0804060
:1033B000E06000BF0120FDF70DFD6069C00705F169
:1033C000010002D0312D0546F4D33238B0FA80F036
:1033D0004009B0BD0120B0BDFEE7000082B0FEF79D
:1033E0006DF9FFF7F7FAFFF71BF9FFF71BFAFFF785
:1033F00053FAFFF76FFAFFF7DDF940F2700501208D
:10340000C2F20005009044F2A1002C1DC0F600009D
:103410000FA14FF400720023019403F0D1F80220B1
:10342000009043F6397005F10804C0F600000AA1C7
:1034300080220023019403F0C3F805200421002218
:1034400002F0D0FD286002F015FC00BFFEE700BFCF
:10345000646973706C61790048432D5352303400B5
:103460002DE9F041044602F0F9F940F27C06C2F27F
:103470000006F06840F6A4050130F0603068C2F242
:10348000000558B13069002840F007813068E16AD2
:10349000C06A884298BF3460FFE000BF3460F068C3
:1034A000012840F0FA80284602F07EF905F1140068
:1034B00002F07AF905F1280002F076F905F13C00F6
:1034C00002F072F905F1500002F06EF905F16400A6
:1034D00002F06AF905F1780002F066F905F18C0056
:1034E00002F062F905F1A00002F05EF905F1B40006
:1034F00002F05AF905F1C80002F056F905F1DC00B6
:1035000002F052F905F1F00002F04EF905F5827073
:1035100002F04AF905F58C7002F046F905F596704F
:1035200002F042F905F5A07002F03EF905F5AA7027
:1035300002F03AF905F5B47002F036F905F5BE70FF
:1035400002F032F905F5C87002F02EF905F5D270D7
:1035500002F02AF905F5DC7002F026F905F5E670AF
:1035600002F022F905F5F07002F01EF905F5FA7087
:1035700002F01AF905F5027002F016F905F5077068
:1035800002F012F905F50C7002F00EF905F5117054
:1035900002F00AF905F5167002F006F905F51B7040
:1035A00002F002F905F5207002F0FEF805F525702D
:1035B00002F0FAF805F52A7002F0F6F805F52F701A
:1035C00002F0F2F805F5347002F0EEF805F5397006
:1035D00002F0EAF805F53E7002F0E6F805F54370F2
:1035E00002F0E2F805F5487002F0DEF805F54D70DE
:1035F00002F0DAF805F5527002F0D6F805F55770CA
:1036000002F0D2F805F55C7002F0CEF805F56170B5
:1036100002F0CAF805F5667002F0C6F805F56B70A1
:1036200002F0C2F805F5707002F0BEF805F575708D
:1036300002F0BAF805F57A7002F0B6F805F57F7079
:1036400002F0B2F805F5826002F0AEF805F224400F
:1036500002F0AAF805F5876002F0A6F805F24C40E2
:1036600002F0A2F840F25818C2F20008404602F0F8
:103670009BF808F11407384602F096F806F164004A
:1036800002F092F806F13C0002F08EF806F15000CC
:1036900002F08AF8C6F81C8037627068716A421CB2
:1036A000E06A72608842626488BF706200EB8000EA
:1036B00005EB8000211D02F0B9F802F0F3F8306943
:1036C00088B13068E16AC06A884228BFBDE8F081ED
:1036D0004EF60450CEF200004FF080510160BFF36F
:1036E0004F8FBFF36F8FBDE8F081000040F27C0583
:1036F00040F6A4064EF60458C2F20005C2F20006D7
:10370000CEF200084FF0805703E000BF204602F0E1
:10371000E1F8A868D0B102F0A1F8A86CC468201D37
:1037200002F014F8E8680138E860A8680138A86079
:1037300002F0B8F894F859000228EAD00128E5D040
:1037400070B9206B02F0C6F8E0E700BF30680228CD
:10375000DFD3C8F80070BFF34F8FBFF36F8FD8E788
:103760004FF0500080F31188BFF36F8FBFF34F8F7E
:10377000FEE700002DE9F0470A9C8246206B1646C2
:103780000F46DDE908599100A5229846FCF7EEFEA8
:10379000206B002F00EB8600A0F1040020F007064C
:1037A00056D0387884F83400387800284BD07878B0
:1037B00084F835007878002845D0B87884F8360049
:1037C000B87800283FD0F87884F83700F878D0B37C
:1037D000387984F838003879A8B3787984F83900D2
:1037E000787980B3B87984F83A00B87958B3F87921
:1037F00084F83B00F87930B3387A84F83C00387AA2
:1038000008B3787A84F83D00787AE0B1B87A84F821
:103810003E00B87AB8B1F87A84F83F00F87A90B1EF
:10382000387B84F84000387B68B1787B84F84100AD
:10383000787B40B1B87B84F84200B87B00281CBF7D
:10384000F87B84F84300002084F8430003E000BFC5
:10385000002084F834000027201D372D28BF37258D
:10386000E562C4E9135701F0ABFF04F1180001F061
:10387000A7FFC5F13800A061304651464246246199
:103880006462676584F8587000F042FBB9F1000F7C
:10389000206018BFC9F80040BDE8F08708480068FC
:1038A000006880F308884FF0000080F3148862B647
:1038B00061B6BFF34F8FBFF36F8F00DF00BF000013
:1038C00008ED00E081B00020009040F20C00C2F250
:1038D000000000684FF0500181F31188BFF36F8F33
:1038E000BFF34F8F013007D0FEE700BF009830B91B
:1038F000009820B9009810B900980028F6D001B0BF
:103900007047000088B040F2F40AC2F2000A0DF1DC
:103910001009EB46DAF8080005681DB1C0680468B4
:1039200001E000BF002402F01DFA02F0C5FEDAF843
:1039300010100646884220D3002DCAF8106051D0DE
:10394000A6424FD302F0C0FFDAF80800C068C7688B
:103950003D1D284601F0FAFE97F82800410745D49E
:1039600000F0FE0087F8280084E000BF6860DAF805
:10397000080039462D6101F027FFDAF808000168D8
:1039800031B3C068C56804682F1D384601F0DEFEFB
:10399000296A2846884795F828004007EDD5A86988
:1039A0002044A042E2D8DAF80000002800F0488164
:1039B000002004A931C102F06FFEDAF80000494688
:1039C0000022002302F0C2FB0028D6D138E100BF5C
:1039D000DAF80C10CAF81060CAE9021002F074FF9D
:1039E0001AE100BF65B1002210E000BFB8693F6175
:1039F0000119B14279601FD90AF1080021E000BF26
:103A0000DAF80C000068B0FA80F04209DAF8000039
:103A1000A11B02F03BF802F057FF002840F0FC80A9
:103A20004EF60450CEF200004FF080510160BFF31B
:103A30004F8FBFF36F8FEFE0311B814206D20AF147
:103A40000C000068294601F0BFFE13E0DAF8000020
:103A5000002800F01381002004A991C102F01CFE8F
:103A6000DAF8000049460022002302F06FFB00282C
:103A700000F00481396A38468847CDE00098B0F1FB
:103A8000FF3F07DCDDE901200399904700980028FB
:103A900000F1C280029E706910B1301D01F056FE27
:103AA00002F00AFEDAF81010074688420DD300989B
:103AB000CAF8107009283FD9AEE000BF6860DAF894
:103AC000080021462D6101F07FFEDAF80800016848
:103AD00041B3C068C568D0F800802C1D204601F0B5
:103AE00035FE296A2846884795F828004007ECD516
:103AF000A86940444045E1D8DAF80000002800F009
:103B000095800020CDE90408069502F0C5FDDAF89D
:103B1000000049460022002302F018FB0028D4D1FF
:103B200084E000BFDAF80C10CAE902100098CAF865
:103B30001070092800F27080DFE800F006060644E5
:103B400048620606444800BF96F82800019A40F0F3
:103B50000101B06986F828108318314641F8043F06
:103B6000BB42366106D997420AF1080007D2934258
:103B70000AD204E0BA1A824206D20AF10C000068A6
:103B800001F022FE48E000BF316A3046884796F8CF
:103B90002800400740D5DAF8000000285AD00198E4
:103BA000B169069608440021CDE9041002F074FDC5
:103BB000DAF8000049460022002302F0C7FA58BB99
:103BC00048E000BF96F8280022E000BF96F82800E1
:103BD00040F00101019886F828100028B06143D018
:103BE000384431460AF10C0241F8040F3661B842FC
:103BF00088BF0AF10802106801F0E6FD0CE000BF82
:103C000096F82800810703D4304601F063FE03E0F4
:103C100000F0FE0086F82800DAF80000594600227D
:103C200002F0AAFB00287FF429AF73E64FF05000A2
:103C300080F31188BFF36F8FBFF34F8FFEE700BF94
:103C40004FF0500080F31188BFF36F8FBFF34F8F99
:103C5000FEE700BF4FF0500080F31188BFF36F8F75
:103C6000BFF34F8FFEE700BF4FF0500080F3118885
:103C7000BFF36F8FBFF34F8FFEE700BF4FF05000D1
:103C800080F31188BFF36F8FBFF34F8FFEE7000003
:103C9000F0B581B0044601F0E1FD94F94560012ED4
:103CA0000FDB04F1240500BF286850B1284602F05C
:103CB000D1FD002818BF01F05DFFF0B2013E0128E0
:103CC000F2D8FF2684F8456001F0ECFD01F0C6FD56
:103CD00094F94470012F0EDB04F11005286850B1EF
:103CE000284602F0B7FD002818BF01F043FFF8B2E4
:103CF000013F0128F2D884F8446001B0BDE8F040EB
:103D000001F0D0BD70B5044602F02CF840F2301C32
:103D1000C2F2000CDCF8040050B19CF8000000284E
:103D200018BF4FF000404FF0000574BB8DE000BF9E
:103D300041F21A20C2F20000C21D22F0070210F068
:103D40000701A0EB020318BF104600224FF4705584
:103D5000CCE90602002918BF03F57055411921F07E
:103D60000701A1F10803CCF8043041E90222191A35
:103D7000C0E9003101208CF800004FF00040CCE990
:103D80000211002C4FF000055FD020405DD124F0DF
:103D9000070000F11002600708BF04F10802002AC2
:103DA0004FF0000551D0DCF8080082424DD8604643
:103DB00050F818EFDEF8045095422CD2DEF80010CF
:103DC000C1B174464D68954218D20B68B3B15D68B5
:103DD000954217D21868A8B14568954216D2046872
:103DE000A4B16568954215D22168A6460029E9D19B
:103DF00011E000BF0CF118000DE000BF8E46204618
:103E000009E000BF9E46084605E000BF864618460A
:103E100001E000BFA646DCF804108E4514D001680E
:103E2000DEF80040AB1A112B04604DD30EEB0205F7
:103E3000680719D04FF0500080F31188BFF36F8FDF
:103E4000BFF34F8FFEE700BF002502F03DFD68077E
:103E50005BD04FF0500080F31188BFF36F8FBFF33A
:103E60004F8F00BFFEE700BF0CF118006B60CEF86B
:103E7000042000BF0368AB420AD21868A8420BD2E4
:103E80000368AB4204D218681A46A842F2D304E091
:103E90000246184601E000BF1A4653686C68D618FF
:103EA000AE4202D11C44154654602B19834207D1FF
:103EB000DCF80430984203D0D0E9000323446B605F
:103EC000AA42286018BF156001F10805DEF8040059
:103ED000DCE90212091A9142CCF8081038BFCCF87C
:103EE0000C109CF80010002918BF40F00040CEF8DC
:103EF0000400DCF8100000210130CEF80010CCF8EE
:103F0000100002F0E1FC6807A3D1284670BD000054
:103F1000034643F6C500C0F600004FF0807C21F058
:103F2000010103E903106FF0020043F8240CA3F130
:103F3000440043F8202C704782B09FED570B40F2AD
:103F4000004440F22876C4F202044FF0000BC2F2A3
:103F5000000641F211185AEC109B22E003F0B8FB66
:103F60004A46534603F05AFA074601980D4603F0B5
:103F700009FD02460B463846294603F0A7F903F02F
:103F800073F940F27001C2F200010968019008461D
:103F900001A94FF0FF32002302F0D8F8642001F0AD
:103FA0009FFD20464FF480610122CDF804B0FCF75C
:103FB000FFFF3068C0F824B0016841F001010160E2
:103FC000416A132908D8416A132905D8416A13297F
:103FD00002D8416A1429F3D3016A11EA080F09D102
:103FE000016A40F24442114204D1016821F001010A
:103FF000016000BF20464FF480610022FCF7D8FF2B
:104000003068C0F824B000BF20464FF40061FCF7D0
:10401000C9FF0028F8D03068C0F824B0016841F02A
:1040200001010160416A092908D8416A092905D8B6
:10403000416A092902D8416A0A29F3D3016A11EABF
:10404000080F09D1016A40F24442114204D10168CB
:1040500021F00101016000BF016841F00101016030
:1040600020464FF40061FCF79DFF0128F8D031682D
:10407000486A0A6A12EA080F7FF470AF0A6A40F2CF
:1040800044431A427FF46AAF0A6822F001020A60D0
:1040900064E700BF00BF00BF0000000000004D400B
:1040A0008CB040F604540020C2F200040390204675
:1040B00000F056F8204600F06FF8204600F078F83F
:1040C00047F65031C0F60001204600F093F940F267
:1040D000700647F2452A43F2520B44F24838C2F2C6
:1040E000000603AD04AF4FF07209C6F6727AC2F251
:1040F000340BC5F22D3815E0ADF81C90CDF818A0A2
:10410000CDE9048B204600F047F820460021142218
:104110003B4600F0E3F8204600F054F94FF4FA7003
:1041200001F0DEFC306829464FF4FA7202F024F9FF
:104130000128E1D1039803F025FC41EC100B38462F
:10414000202103A28DED000BFCF724F9DAE700BF74
:10415000446973743A20252E3266636D00000000B6
:1041600010B547F6443145F2C50245F21D63C0F66D
:104170000001C0F60002C0F60003044600F0DEF9BC
:10418000204600F047FF2046002100F04FFF204668
:10419000BDE81040AFF3008080B5016890F838208A
:1041A000097C406B5143C900FCF7E8F980BD000071
:1041B00010B5044600F09AF8204600F0DFF8002819
:1041C000FAD120460021BDE8104000F005B90000FA
:1041D00070B582B0002B00F07F8090F88CC0BCF1ED
:1041E000000F79D0DDF818C0022B09D3BCF1030F02
:1041F0003AD0BCF1020F03D1C91A013103E000BF6C
:104200005FEACC7C32D1B0F84CC0944564D8B0F8A9
:104210004EC0944560D9B0F848C0B0F84AE013FAEF
:1042200081F48BB2A5B27345664638BF0E46A542EF
:1042300008BF0E4673452346B1B238BFAEF1010345
:10424000A54208BF2B46714546D29BB2634543D970
:10425000614588BF8C46734538BF9E46AEEB0C0364
:104260004FF0000E614631E0D21A0132B0F84860DA
:104270008E4231D8B0F84A608E422DD9B0F84CC089
:10428000B0F84EE013FA82F493B2A5B273456646D5
:1042900038BF1646A54208BF164673452346B2B23C
:1042A00038BFAEF10103A54208BF2B46724513D2B9
:1042B0009BB2634510D9624588BF9446734538BFA9
:1042C0009E46AEEB0C034FF0010E6246066B9BB2AE
:1042D000B668CDF800E0B04702B070BD45F2750C8D
:1042E000C0F6000CC0F804C000F08AB910B504464E
:1042F00090F8930040B1206894F83820017C606BFE
:104300005143C900FCF73AF920460021BDE81040AE
:1043100000F062B810B5B0F84E40DDF808C0B0F853
:104320004CE0944206D962450AD8E64524BF0020F5
:1043300010BD05E062454FF000021DD9E6451BD2D5
:10434000B0F84A20B0F848008A420BD900229942BE
:104350004FF0000188BF0121984238BF012241EA95
:10436000020010BD002299424FF0000188BF0121D8
:10437000984238BF01220A40104610BDB0B504462D
:1043800000F0A6FD94F8392094F838002168024422
:104390004B7CD5B29D420FD294F893202AB1097C70
:1043A0004143606BC900FCF7E9F82046294600F05C
:1043B00013F80120B0BD00BF204600F031FE002000
:1043C000B0BD000010B5044600F082FD2046BDE8F7
:1043D000104000F025BE000010B50446006B84F8C4
:1043E0003910026820469047206B41682046BDE89E
:1043F000104008472DE9F04F81B00446806D884297
:104400005DD0A16508780D4684F87400487884F87A
:104410007500887884F87600C87884F87700087981
:1044200084F87800487984F87900887984F87A00EB
:10443000C87984F87B00087A84F87C00487A84F88C
:104440007D0091F90A9084F87E90C87A84F87F0004
:1044500091F90C80084684F8808091F90D7084F8F9
:10446000817091F90E6084F8826091F90FB084F840
:1044700083B091F910A0112184F884A000F0E0FB32
:10448000A4F886002846132100F0DAFBA4F888007F
:104490002846152100F0D4FBA4F88A0094F88D007A
:1044A00084F88E7084F88F6048B101280AD15F4586
:1044B000B8BF84F88EB0564501DD84F88FA001B0F6
:1044C000BDE8F08F08EB0900B842C8BF84F88E0041
:1044D0004645C246C8BF84F88FA001B0BDE8F08F42
:1044E00044F2F161C0F60001C1657047B0B5044601
:1044F000049884F8382040F20112A4F8922002684F
:104500000025C4E90B302046A56584F8395084F8AD
:104510006D5084F8915084F88D506163904700206D
:10452000CFF6FF70216B206560654968204688479B
:104530002046FFF7D5FF84F87050B0BDB0B582B00B
:104540009C4613460C4645F2D14145F29922C0F6ED
:104550000001C0F600020546CDF800C000F06CFD79
:104560000DF1070000F0ACFC9DF8072044F649432C
:104570000146C0F6000328460094FFF7B7FF02B0DB
:10458000B0BD0000022B07D0012B09D0002B14BFB7
:104590001044084480B27047401A80B2704700BF90
:1045A000801A80B270470000022B07D0012B09D07F
:1045B000002B14BF401A104480B27047801A80B29A
:1045C000704700BF084480B27047000010B582B049
:1045D000B0F83EE0DDF810C0C46AA2EB0E0292B261
:1045E000CDF800C0A04702B010BD000080B582B079
:1045F000DDF810C0CDF800C0FFF7E8FF02B080BDC5
:104600002DE9F04F81B01F4692460D4606464FF603
:10461000FF7801F097F87268397830469047404546
:104620005ED0A8F101017C1C4FF000091FFA81FB4C
:1046300008E000BF8144726814F8011B30469047BF
:1046400040454FD087B25F45F5D096F87020504670
:10465000032A29461DD8DFE802F003090F1700BF1F
:10466000F16D304688475044294612E0F16D3046DE
:104670008847291A0CE000BFF16D30468847AAEB45
:104680000000294605E000BFF16D3046884741191A
:104690005046A6F86410A6F866003046394600F089
:1046A00069FA48B10146304600F024F896F87010D7
:1046B000032906D9BEE700BF002096F87010032931
:1046C000B8D8DFE801F007090B0300BFAAEB000A26
:1046D000B0E700BF0544ADE78244ABE72D1AA9E778
:1046E0004FF000091FFA89F001B0BDE8F08F00001B
:1046F000002070472DE9F04F8BB083460166002003
:104700008BF86C009BF878000B784FF0FF3208288C
:1047100031BF05460131CBF86010A0F1080502FA5F
:1047200000F023EA00009BF879308BF86C508BF88E
:104730006A005F190E78FCB2082CECB226FA04F677
:104740000AD34C1CCBF86040C5F108054978EDB29E
:10475000A9400E43083F21469A409BF8923026EA32
:10476000020203928BF86B209BF87A208BF86E3054
:10477000B3FA83F35B098BF86C708BF86F30BC185D
:104780000B78E6B2082EFEB223FA06FC0BD34E1CC1
:10479000CBF86060C7F108074978FFB2B9404CEA2E
:1047A000010C083C31469BF87B708BF86C403D193E
:1047B0000E78EBB2082BE3B226FA03F60AD3C4F163
:1047C00008034C1CCBF860404978DBB299400E439B
:1047D000083D21469BF87CA04FFA80F98BF86C507D
:1047E0000AEB05000B78C4B2082CECB223FA04F3F0
:1047F00012D31C46C5F108034D1CCBF86050497814
:10480000DBB299400C4308380294B9F1010F8BF8E0
:104810006C0008DA9EE100BF0293B9F1010F8BF83A
:104820006C00C0F29781511E4FF0FF30C9B27B1E61
:1048300000FA02F200FA01F1B840DBB201272CEADB
:10484000020207FA03F3039F114426EA00023A44E6
:104850009A1A9BF87060BBF8640057B24DB22946B3
:104860003A463346FFF78EFE8046BBF8660029467F
:104870003A463346ABF86480FFF796FE032EABF85A
:10488000660009D8DFE806F0020C1620039958FAF2
:1048900089F340FA81F11EE0434601461BE000BF68
:1048A000039908F1010349B2A3EB010850FA89F119
:1048B00011E000BF5FFA89F108F10103A3EB0108E1
:1048C00003994AB205E000BF03995FFA89F248FAFA
:1048D00081F3411C881A8FB21FFA88F182B29BB211
:1048E00058460097FFF716FD002800F033819BF82B
:1048F0006C30DBF86060CDF804A04FF0000E4FF094
:10490000000AABF868E004E0039840B2854280F208
:104910001B819BF876C0327803EB0C07D8B2FDB24E
:10492000082D22FA00F20AD3751CCBF86050C3F1AF
:1049300008037078DBB298400243083F2E469BF88C
:1049400077308BF86C70D9193578CCB2082CFCB262
:1049500025FA04F509D3741CCBF86040C7F10807A9
:104960007078FFB2B840054308394FF0FF3404FABD
:104970000CF022EA0000059004FA03F025EA00009A
:1049800004908BF86C1003E0C8078BF86C30BBD038
:104990009BF86D0010B39BF86A00059CA0EB0A0120
:1049A000E2B2CBB2934269D8641AE1B281420EF10D
:1049B000010E61D3241AE1B2814253D3241AE1B229
:1049C000814253D3241AE1B2814253D3241AE1B273
:1049D00081420EF1040EEDD24EE000BF059C002096
:1049E0009BF86A10A1EB0A0550BB00BF9BF87090C2
:1049F000BBF866004FFA8AF64FFA8EF731463A4610
:104A00004B46CDF828E0FFF7CFFDBBF86410804699
:104A1000084631463A464B46FFF7B4FD9BF86F20F7
:104A20000146E0B2EBB2984238BF03468BF89220C1
:104A300058464246CDF80090FFF7CAFBDDF828E063
:104A4000E8B2E1B2814219D39BF86D00641B0EF10C
:104A5000010E4FF0000A9BF86A100028A1EB0A052E
:104A6000EED1C3E70EF1010E06E000BF0EF1020E1B
:104A700002E000BF0EF1030E4FF0000A049A04EBAF
:104A80000A018BF868108BF869E000BF9BF86A0098
:104A90009BF87060A0EB010A0A925FFA82F8BBF8FB
:104AA00066205FFA8AF7BBF864004CB24FFA8EF5C5
:104AB0000997B845079238BF4746069121462A46CE
:104AC0003346F146FFF75EFD0890079821462A46D7
:104AD0003346FFF769FD9BF86E1002468BF8921083
:104AE000089958463B465C460096FFF771FB0998CB
:104AF000804507D30A9A09F1010EA2EB0A020021B0
:104B0000A346C3E706980A99266E01EB000A94F8BB
:104B10006C2084F868A084F869903178531CDFB267
:104B2000A346082F21FA02F1CE46FFF42DAF701CE8
:104B3000CBF86000C2F108037778DBB207FA03F321
:104B40001943D31F06461FE79BF86E00DDF804A04B
:104B50008BF892004FF0FF30029A00FA0AF122EA35
:104B60000101AAF10102D2B29040084440B20BB058
:104B7000BDE8F08F70B50C46816DFF2C01F1170177
:104B800004D8612C36D3B0F8880037E0B0F88A003A
:104B90000E1835462846002100F052F806442846F3
:104BA000022100F04DF8A04205F10405F2D330884F
:104BB00040BA00283ED0A0423ED0B078315A49BA1F
:104BC000C1B3A142064437D0B078315A49BA89B34B
:104BD000A142064430D0B078315A49BA51B3A1420B
:104BE000064429D0B178705A0E4440BA0028E2D168
:104BF00020E000BF412C02D3B0F886000144487881
:104C0000C0B10A78A24219D00144487890B10A781C
:104C1000A24213D00144487860B10A78A2420DD074
:104C20000144487830B10A78A24207D0014448785C
:104C30000028E6D1002070BDF01C70BD881C70BD3E
:104C4000405A00BA000C70472DE9F04102F0070409
:104C5000012690F89250A640022DB44628BF4FF08E
:104C6000000CB5F1010E18BFB646056822F0070624
:104C70002D7C476BDDF81880754317FA85F5B8F180
:104C8000000F294418D013F00306A3F1010500F02A
:104C9000A9800C7844EA0C0484EA0E07541C14F032
:104CA00007040F701CD04FEA4C0C4FEA4E0E012E39
:104CB00023D12B4696E000BF13F00302A3F10100BD
:104CC00038D00C78012A44EA0C0484EA0E0401F876
:104CD000014B25D1034680B20328C0F0EF802DE0C0
:104CE000478F4FF00108394490F89270012F98BF18
:104CF000C44618BFC646012EDBD00C7844EA0C042B
:104D000084EA0E07941C14F007040F7036D04FEAA3
:104D10004C0C4FEA4E0E022E3DD1023B62E000BF2A
:104D20000C78022A44EA0C0484EA0E0401F8014BD0
:104D300042D1023B80B20328C0F0C080081F00BFF0
:104D400010F8041F043B41EA0C0181EA0E010170D6
:104D50004178827841EA0C0181EA0E01C478417001
:104D600042EA0C0181EA0E01817044EA0C0181EAF9
:104D70000E011A04C170E3D1A0E000BF478F4FF0CD
:104D80000108394490F89270012F98BFC44618BFAB
:104D9000C646022EC1D00C78033244EA0C0484EAE1
:104DA0000E040C7012F00704A3F1030310D04FEAB5
:104DB0004C0C4FEA4E0E15E00A78033B42EA0C0217
:104DC00082EA0E0201F8012B80B2032876D3B5E700
:104DD000428F0126114490F89220012A98BFB446D0
:104DE00018BFB646AAB2032A38BFBDE8F081012237
:104DF0000CE000BF458F90F892602944012E98BFC7
:104E0000944618BF9646043B1D0457D00D78661C87
:104E100045EA0C0585EA0E0576070D7004D04FEAC9
:104E20004C0C4FEA4E0E08E0458F90F892602944F2
:104E3000012E98BF944618BF96460D78A61C45EAE9
:104E40000C0585EA0E0576070D7005D04FEA4C0C6F
:104E50004FEA4E0E09E000BF458F90F8926029445A
:104E6000012E98BF944618BF96460D78E61C45EA79
:104E70000C0585EA0E0576070D7005D04FEA4C0C3F
:104E80004FEA4E0E09E000BF458F90F8926029442A
:104E9000012E98BF944618BF96460D78043445EA13
:104EA0000C0585EA0E0514F007040D70A2D04FEA38
:104EB0004C0C4FEA4E0E043B1D04A7D1BDE8F08117
:104EC000014640F698500822C2F200000A7070476E
:104ED0002DE9F04F81B0834690F8388000689BF848
:104EE000396090F81190002501274FF6F87A00BF3D
:104EF000DBF80000F2B2037CDBF8340005FB03F1C1
:104F000001EA0A01441858460021009400F06EF8A6
:104F1000474506D20136F0B20835484507F101078A
:104F2000E6D301B0BDE8F08FB0B590F83810056851
:104F3000CB00838795F810C090F8393095F811E0D0
:104F40004FEACC0CDA005C18A0F83AC0C28774456E
:104F500088BFAEEB03011944C900A0F84020A0F8B7
:104F6000421069694164B0BD70B582B00446216CDD
:104F7000B0F84400E164B4F85010B4F85420B4F828
:104F80005230B4F856500026A4F84A002046A4F83F
:104F900048600095FFF7BEF920B3B4F84810B4F8A4
:104FA00050000122814284F88C2038BFA4F84800C8
:104FB000B4F84A10B4F85200814288BFA4F84A00FD
:104FC000B4F84C10B4F85400814238BFA4F84C0037
:104FD000B4F84E10B4F85600814288BFA4F84E00D1
:104FE00002B070BD84F88C6002B070BD80B582B034
:104FF000DDF810C0D0F808E08DF805108DF8062017
:105000008DF804306B460F210122CDF800C0F04727
:1050100002B080BDD0F808C00A21002200236047FA
:10502000D0F808C01021002200236047D0F808C043
:105030000A460B210023604710B54FF47F44DDF88A
:1050400008C0A0F82340FF244FF0000E80F828404D
:1050500000F10804C0F800E080F826E084E80E5073
:10506000BDE81040AFF30080D0F808C0092100224D
:105070000023604700294FF6FF7008BF70470A29D8
:1050800018BF084670470000D0F810C01921002250
:105090000023604780B582B08DF807100DF107023C
:1050A000012100F003F802B080BD0000D0F810C06C
:1050B00013460A4617216047D0F810C01821002275
:1050C00000236047F0B581B014390C294FF000007F
:1050D0004AD8DFE801F00749490D293349494949D0
:1050E00049490900FDF766FB012001B0F0BD00BF92
:1050F000002AF9D041F2981CC2F2000C9CF8004042
:1051000012F00305A2F1010E30D0184610F8017B11
:1051100041F29916611CC2F20006012D375527D1C4
:105120000346724636E000BF41F29810C2F200001A
:1051300000210170012001B0F0BD00BF41F29810C4
:10514000C2F20000037840F2801041F299124FF44D
:105150007A77C2F20000C2F2000278210097FCF7D1
:105160002DF80028C0D0002001B0F0BD13E000BF32
:105170005F78A01CC9B2022D775405D10233023AE0
:105180000146044607E000BF9D78E11CC0B203332E
:10519000033A35540C465FFA8EF003281AD341F2D5
:1051A0009910043BC2F20000214600BF13F8047FAF
:1051B000CDB247554E1C5F78F6B287558D1C9F784F
:1051C000EDB24755CE1CDF78043A0431F6B215062D
:1051D0008755EBD18CF80010012001B0F0BD000024
:1051E000D0F80CC01921002200236047D0F80CC071
:1051F0000A46162100236047D0F80CC00A46152144
:1052000000236047D0F80CC013460A4617216047B8
:10521000F0B581B00E4604460DF103050AE000BF6B
:10522000A1F11800022817D2E668204600220023C8
:10523000B0473E46374617F8011B1729F0DCA1F1AD
:105240001500022814D27278E768204600238DF8F2
:105250000320B8470236EDE7FE2915D172782046C3
:1052600029218DF8032000F051FA0236E2E700BF51
:10527000172909D1707801218DF8030020462A46AC
:10528000FFF7C0FF0236D5E701B0F0BDD0F80CC083
:105290001821002200236047F0B581B01439052998
:1052A0002CD804461E461546DFE801F0042C1646AD
:1052B0001EBE00BF94F824001421FF2804BF7820EC
:1052C00084F82400D4F810C020462A46334601B0A2
:1052D000BDE8F040604700BF20462946FFF7DAFEF0
:1052E000012001B0F0BD00BF41F21920C2F2000060
:1052F00000210170012001B0F0BD00BF002001B00D
:10530000F0BD00BF41F21926C2F200063078012834
:1053100002D12046FFF7B8FE2046FFF7CDFE20461B
:105320000021FFF7B7FE20462946FFF7B3FE012014
:10533000307001B0F0BD00BF41F21927C2F2000782
:105340003878012802D12046FFF79EFE192D7DD323
:1053500020461821324600F0DDF9A5F11800C1B24F
:10536000192906F118026FD32046182100F0D2F94E
:10537000A5F13000C1B2192906F1300264D32046EC
:10538000182100F0C7F9A5F14800C1B2192906F1AA
:10539000480259D32046182100F0BCF9A5F160005D
:1053A000C1B2192906F160024ED32046182100F03F
:1053B000B1F9A5F17800C1B2192906F1780243D3F9
:1053C0002046182100F0A6F905F17000C1B2192994
:1053D00006F1900238D32046182100F09BF905F120
:1053E0005800C1B2192906F1A8022DD32046182170
:1053F00000F090F905F14000C1B2192906F1C00290
:1054000022D32046182100F085F905F12800C1B209
:10541000192906F1D80217D32046182100F07AF98D
:105420001035F03612E000BF41F21925C2F2000536
:105430002878012802D12046FFF726FE0020287098
:10544000012001B0F0BD00BF05461646E9B2204676
:10545000324600F05FF900203870012001B0F0BD45
:1054600010B5D0F814C02821002200230446E047DC
:10547000D4F80CC02046142100220023E047204627
:105480004B21012200F042F92068292102792046AF
:1054900000F03CF920464B21002200F037F920684B
:1054A00029210279204600F031F920464B210122C2
:1054B00000F02CF92068292142792046BDE81040EF
:1054C00000F024B98A7C016080F822207047000037
:1054D000B0B50D46044600F01FF808B10120B0BD7C
:1054E000092D0DD00A2D15D12046FFF7B9FF48F23E
:1054F0007D51C0F600012046FFF78AFE0120B0BDB5
:1055000048F2BC51C0F600012046FFF7DBFF012046
:10551000B0BD00BF0020B0BD2DE9F0410B390446FD
:1055200004294FF0000088BFBDE8F0811546DFE890
:1055300001F00365132335002046002D07BF48F214
:10554000B251C0F6000148F2B751C0F60001FFF7B2
:105550005FFE0120BDE8F081002D51D048F2765168
:10556000C0F600012046FFF753FE2068C07C84F897
:1055700022000120BDE8F0812046FFF787FE20468B
:105580008121FFF739FE20462946FFF72FFE2046EE
:10559000FFF726FE0120BDE8F08100BF20461E4631
:1055A000FFF774FE707994F8221001EBC0072046D3
:1055B00040215FFA87F8FFF71FFE4FEA181000F14D
:1055C00010012046FFF718FE07F00F012046FFF7F5
:1055D0000DFEB07940F0B0012046FFF707FE00BF96
:1055E00030793268C000C1B22046FFF70BFE013DA2
:1055F0002806F5D12046FFF7F3FD0120BDE8F08134
:1056000048F26F51C0F600012046FFF701FE206806
:10561000807C84F822000120BDE8F08129392A2904
:1056200000F26E80DFE801F0651C686C656C6C6CE4
:105630006C6C6C6C6C6C6C6C6C6C6C6C6C6C6C6CAA
:105640006C6C6C6C6C6C6C6C6C6C6C65656C6C16FE
:1056500016161600002180F827100120704700BFA1
:10566000002000BF00BF00BF00BF00BF00BF00BFE1
:1056700000BF00BF00BF00BF00BF00BF00BF00BF32
:1056800000BF00BF00BF00BF00BF00BF00BF00BF22
:1056900000BF00BF00BF00BF00BF00BF00BF00BF12
:1056A00000BF00BF00BF00BF00BF00BF00BF00BF02
:1056B00000BF00BF00BF00BF00BF00BF00BF00BFF2
:1056C00000BF00BF00BF00BF00BF00BF00BF00BFE2
:1056D00000BF00BF00BF00BF00BF00BF00BF00BFD2
:1056E00040F03F0100BFB1F59F7F00F1400000BFD7
:1056F000B8D90120704700BF012000BF704700BF2C
:10570000012180F82710012070470000D0F814C054
:1057100000236047F0B581B017460D460646FFF7F7
:10572000CBFC30464021FFF7B5FC346930461721E9
:105730002A463B46A047304601B0BDE8F040FFF79F
:10574000A3BC0000002180F826107047D0E9013288
:1057500001699A60D1F804C082688445536008BF2B
:105760004A600022026108680138086008687047D2
:1057700045F22003C2F20003036044F62060C2F247
:1057800000000860802010607047000045F27C43F4
:10579000C2F20003036045F27C00C2F20000086020
:1057A0004FF48070106070474FF0FF31024642F8AE
:1057B000081F00214260C0E9032201607047000019
:1057C000002101617047000010B5D1F800E01EF122
:1057D000010213D000F1080462681368734511D800
:1057E00053681C68744511D85A68146874450FD8FA
:1057F00054682368A4467345EED90BE00269D2F8D9
:1058000004C007E09446224604E000BF9C4601E045
:1058100094461A46C1F804C0CCF808108A6051605A
:10582000086101680131016010BD0000D0F800C0BE
:10583000436808619A684B608A609A689960516011
:105840000CF1010101607047DFF80C00016841F4C0
:10585000700101607047000088ED00E04FF05000DB
:1058600080F31188BFF36F8FBFF34F8F40F20C00AE
:10587000C2F2000001684A1C026009B1704700BF13
:105880004EF60450CEF200000068000608BF7047D4
:105890004FF0500080F31188BFF36F8FBFF34F8F2D
:1058A000FEE7000040F20C00C2F20000016839B1CE
:1058B0000139016018BF7047002080F311887047DC
:1058C0004FF0500080F31188BFF36F8FBFF34F8FFD
:1058D000FEE7000070B5002808BF70BD40F230152B
:1058E000C2F200050446287854F8041C002818BFAA
:1058F0004FF0004008420DD0A4F1080632689AB17A
:105900004FF0500080F31188BFF36F8FBFF34F8FBC
:10591000FEE700BF4FF0500080F31188BFF36F8F98
:10592000BFF34F8FFEE700BF21EA000044F8040CEC
:1059300000F018FA54F8041CA8680844A86005F19F
:10594000180000BF0368B3420AD21868B04225D2DB
:105950000368B34204D218681A46B042F2D301E099
:10596000024618465368D418B44202D11944164668
:1059700051607318834206D16B68984203D0D0E916
:10598000000319447160B242306018BF1660686944
:1059900001306861BDE8704000F096BF1A46536858
:1059A000D418B442E5D1E1E74EF21000CEF2000087
:1059B00000210160816040F20801C2F20001096823
:1059C00044F6D352C1F26202A1FB02124FF0FF3142
:1059D00001EB9211416007210160704745F2D84CFC
:1059E000C2F2000CDCF8002022B3634653F8082F03
:1059F00042B3634653F8102F52B3634653F8182F3F
:105A000062B3634653F8202F72B3634653F8282FCE
:105A100082B3634653F8302F92B3634653F8382F5E
:105A2000002A18BF7047072219600CEBC2014860BA
:105A3000704700BF0022634619600CEBC20148604A
:105A4000704700BF012219600CEBC201486070472B
:105A5000022219600CEBC2014860704703221960F2
:105A60000CEBC20148607047042219600CEBC201C4
:105A700048607047052219600CEBC201486070470E
:105A8000062219600CEBC2014860704770B51546DC
:105A90000E460446FFF7E2FE94F84400FF2804BFD8
:105AA000002084F8440094F84500FF2804BF00203B
:105AB00084F84500FFF7F6FEA06B28B12046BDE84C
:105AC0007040FEF7E5B800BF04F1240031462A46D5
:105AD00000F092F82046BDE87040FEF7D9B800000B
